{
  "_format": "hh-sol-artifact-1",
  "contractName": "RecurringPayments",
  "sourceName": "contracts/ReccuringPaymnets.sol",
  "abi": [
    {
      "anonymous": false,
      "inputs": [
        {
          "indexed": false,
          "internalType": "uint8",
          "name": "version",
          "type": "uint8"
        }
      ],
      "name": "Initialized",
      "type": "event"
    },
    {
      "anonymous": false,
      "inputs": [
        {
          "components": [
            {
              "internalType": "address",
              "name": "Customer",
              "type": "address"
            },
            {
              "internalType": "address",
              "name": "Payee",
              "type": "address"
            },
            {
              "internalType": "uint256",
              "name": "Allowance",
              "type": "uint256"
            },
            {
              "internalType": "address",
              "name": "TokenAddress",
              "type": "address"
            },
            {
              "internalType": "bytes32",
              "name": "PubKey",
              "type": "bytes32"
            },
            {
              "internalType": "string",
              "name": "Email",
              "type": "string"
            },
            {
              "internalType": "uint256",
              "name": "LastExecutionDate",
              "type": "uint256"
            },
            {
              "internalType": "uint256",
              "name": "PaidAmount",
              "type": "uint256"
            },
            {
              "internalType": "uint8",
              "name": "SubscriptionPlan",
              "type": "uint8"
            },
            {
              "internalType": "uint256",
              "name": "SubscriptionPeriod",
              "type": "uint256"
            },
            {
              "internalType": "string",
              "name": "SubscriptionService",
              "type": "string"
            },
            {
              "internalType": "bool",
              "name": "IsActive",
              "type": "bool"
            }
          ],
          "indexed": false,
          "internalType": "struct RecurringPayments.Subscription",
          "name": "",
          "type": "tuple"
        }
      ],
      "name": "NewSubscription",
      "type": "event"
    },
    {
      "anonymous": false,
      "inputs": [
        {
          "indexed": true,
          "internalType": "address",
          "name": "previousOwner",
          "type": "address"
        },
        {
          "indexed": true,
          "internalType": "address",
          "name": "newOwner",
          "type": "address"
        }
      ],
      "name": "OwnershipTransferred",
      "type": "event"
    },
    {
      "anonymous": false,
      "inputs": [
        {
          "components": [
            {
              "internalType": "address",
              "name": "Customer",
              "type": "address"
            },
            {
              "internalType": "address",
              "name": "Payee",
              "type": "address"
            },
            {
              "internalType": "uint256",
              "name": "Allowance",
              "type": "uint256"
            },
            {
              "internalType": "address",
              "name": "TokenAddress",
              "type": "address"
            },
            {
              "internalType": "bytes32",
              "name": "PubKey",
              "type": "bytes32"
            },
            {
              "internalType": "string",
              "name": "Email",
              "type": "string"
            },
            {
              "internalType": "uint256",
              "name": "LastExecutionDate",
              "type": "uint256"
            },
            {
              "internalType": "uint256",
              "name": "PaidAmount",
              "type": "uint256"
            },
            {
              "internalType": "uint8",
              "name": "SubscriptionPlan",
              "type": "uint8"
            },
            {
              "internalType": "uint256",
              "name": "SubscriptionPeriod",
              "type": "uint256"
            },
            {
              "internalType": "string",
              "name": "SubscriptionService",
              "type": "string"
            },
            {
              "internalType": "bool",
              "name": "IsActive",
              "type": "bool"
            }
          ],
          "indexed": false,
          "internalType": "struct RecurringPayments.Subscription",
          "name": "",
          "type": "tuple"
        }
      ],
      "name": "SubscriptionCancelled",
      "type": "event"
    },
    {
      "anonymous": false,
      "inputs": [
        {
          "components": [
            {
              "internalType": "address",
              "name": "Customer",
              "type": "address"
            },
            {
              "internalType": "address",
              "name": "Payee",
              "type": "address"
            },
            {
              "internalType": "uint256",
              "name": "Allowance",
              "type": "uint256"
            },
            {
              "internalType": "address",
              "name": "TokenAddress",
              "type": "address"
            },
            {
              "internalType": "bytes32",
              "name": "PubKey",
              "type": "bytes32"
            },
            {
              "internalType": "string",
              "name": "Email",
              "type": "string"
            },
            {
              "internalType": "uint256",
              "name": "LastExecutionDate",
              "type": "uint256"
            },
            {
              "internalType": "uint256",
              "name": "PaidAmount",
              "type": "uint256"
            },
            {
              "internalType": "uint8",
              "name": "SubscriptionPlan",
              "type": "uint8"
            },
            {
              "internalType": "uint256",
              "name": "SubscriptionPeriod",
              "type": "uint256"
            },
            {
              "internalType": "string",
              "name": "SubscriptionService",
              "type": "string"
            },
            {
              "internalType": "bool",
              "name": "IsActive",
              "type": "bool"
            }
          ],
          "indexed": false,
          "internalType": "struct RecurringPayments.Subscription",
          "name": "",
          "type": "tuple"
        }
      ],
      "name": "SubscriptionPaid",
      "type": "event"
    },
    {
      "inputs": [
        {
          "internalType": "address",
          "name": "_customer",
          "type": "address"
        },
        {
          "internalType": "bytes32",
          "name": "_sid",
          "type": "bytes32"
        }
      ],
      "name": "cancelSubscription",
      "outputs": [],
      "stateMutability": "nonpayable",
      "type": "function"
    },
    {
      "inputs": [
        {
          "internalType": "address",
          "name": "_payee",
          "type": "address"
        },
        {
          "internalType": "uint256",
          "name": "_subscriptionCost",
          "type": "uint256"
        },
        {
          "internalType": "address",
          "name": "_token",
          "type": "address"
        },
        {
          "internalType": "uint8",
          "name": "_subscriptionPlan",
          "type": "uint8"
        },
        {
          "internalType": "string",
          "name": "_subscriptionService",
          "type": "string"
        },
        {
          "internalType": "bytes32",
          "name": "_pubkey",
          "type": "bytes32"
        },
        {
          "internalType": "string",
          "name": "_email",
          "type": "string"
        },
        {
          "internalType": "uint256",
          "name": "_subscriptionPeriod",
          "type": "uint256"
        },
        {
          "internalType": "bytes32",
          "name": "_sid",
          "type": "bytes32"
        }
      ],
      "name": "createSubscription",
      "outputs": [],
      "stateMutability": "nonpayable",
      "type": "function"
    },
    {
      "inputs": [
        {
          "internalType": "bytes32",
          "name": "_pubkey",
          "type": "bytes32"
        },
        {
          "internalType": "string",
          "name": "_service_address",
          "type": "string"
        }
      ],
      "name": "encodeSubscriptionId",
      "outputs": [
        {
          "internalType": "bytes32",
          "name": "",
          "type": "bytes32"
        }
      ],
      "stateMutability": "pure",
      "type": "function"
    },
    {
      "inputs": [],
      "name": "everDuesAutobillerAddress",
      "outputs": [
        {
          "internalType": "address",
          "name": "",
          "type": "address"
        }
      ],
      "stateMutability": "view",
      "type": "function"
    },
    {
      "inputs": [
        {
          "internalType": "address",
          "name": "_customer",
          "type": "address"
        },
        {
          "internalType": "bytes32",
          "name": "_sid",
          "type": "bytes32"
        }
      ],
      "name": "executePayment",
      "outputs": [],
      "stateMutability": "nonpayable",
      "type": "function"
    },
    {
      "inputs": [
        {
          "internalType": "address",
          "name": "_customer",
          "type": "address"
        },
        {
          "internalType": "bytes32",
          "name": "sid",
          "type": "bytes32"
        }
      ],
      "name": "getSubscription",
      "outputs": [
        {
          "components": [
            {
              "internalType": "address",
              "name": "Customer",
              "type": "address"
            },
            {
              "internalType": "address",
              "name": "Payee",
              "type": "address"
            },
            {
              "internalType": "uint256",
              "name": "Allowance",
              "type": "uint256"
            },
            {
              "internalType": "address",
              "name": "TokenAddress",
              "type": "address"
            },
            {
              "internalType": "bytes32",
              "name": "PubKey",
              "type": "bytes32"
            },
            {
              "internalType": "string",
              "name": "Email",
              "type": "string"
            },
            {
              "internalType": "uint256",
              "name": "LastExecutionDate",
              "type": "uint256"
            },
            {
              "internalType": "uint256",
              "name": "PaidAmount",
              "type": "uint256"
            },
            {
              "internalType": "uint8",
              "name": "SubscriptionPlan",
              "type": "uint8"
            },
            {
              "internalType": "uint256",
              "name": "SubscriptionPeriod",
              "type": "uint256"
            },
            {
              "internalType": "string",
              "name": "SubscriptionService",
              "type": "string"
            },
            {
              "internalType": "bool",
              "name": "IsActive",
              "type": "bool"
            }
          ],
          "internalType": "struct RecurringPayments.Subscription",
          "name": "",
          "type": "tuple"
        }
      ],
      "stateMutability": "view",
      "type": "function"
    },
    {
      "inputs": [
        {
          "internalType": "address",
          "name": "_sender",
          "type": "address"
        }
      ],
      "name": "initialize",
      "outputs": [],
      "stateMutability": "nonpayable",
      "type": "function"
    },
    {
      "inputs": [],
      "name": "owner",
      "outputs": [
        {
          "internalType": "address",
          "name": "",
          "type": "address"
        }
      ],
      "stateMutability": "view",
      "type": "function"
    },
    {
      "inputs": [],
      "name": "renounceOwnership",
      "outputs": [],
      "stateMutability": "nonpayable",
      "type": "function"
    },
    {
      "inputs": [
        {
          "internalType": "address",
          "name": "_customer",
          "type": "address"
        },
        {
          "internalType": "bytes32",
          "name": "_sid",
          "type": "bytes32"
        }
      ],
      "name": "subscriptionTimeRemaining",
      "outputs": [
        {
          "internalType": "uint256",
          "name": "",
          "type": "uint256"
        }
      ],
      "stateMutability": "view",
      "type": "function"
    },
    {
      "inputs": [
        {
          "internalType": "address",
          "name": "newOwner",
          "type": "address"
        }
      ],
      "name": "transferOwnership",
      "outputs": [],
      "stateMutability": "nonpayable",
      "type": "function"
    },
    {
      "inputs": [
        {
          "internalType": "address",
          "name": "_autobiller",
          "type": "address"
        }
      ],
      "name": "updateEverDuesAutobillerAddress",
      "outputs": [],
      "stateMutability": "nonpayable",
      "type": "function"
    }
  ],
  "bytecode": "0x608060405234801561001057600080fd5b50613012806100206000396000f3fe608060405234801561001057600080fd5b50600436106100b45760003560e01c80639823087d116100715780639823087d146101535780639a2c85641461016f5780639c5b620b1461019f578063c4d66de8146101cf578063d7557040146101eb578063f2fde38b1461021b576100b4565b806302c38c03146100b95780632d6b72cc146100d75780636e5cc955146100f3578063715018a61461010f57806380370f68146101195780638da5cb5b14610135575b600080fd5b6100c1610237565b6040516100ce9190611b94565b60405180910390f35b6100f160048036038101906100ec9190611cef565b610261565b005b61010d60048036038101906101089190611dfb565b610a88565b005b610117610c85565b005b610133600480360381019061012e9190611e3b565b610c99565b005b61013d610ce5565b60405161014a9190611b94565b60405180910390f35b61016d60048036038101906101689190611dfb565b610d0f565b005b61018960048036038101906101849190611e68565b6111ee565b6040516101969190611ed7565b60405180910390f35b6101b960048036038101906101b49190611dfb565b611224565b6040516101c69190611f01565b60405180910390f35b6101e960048036038101906101e49190611e3b565b611276565b005b61020560048036038101906102009190611dfb565b6113f6565b6040516102129190612117565b60405180910390f35b61023560048036038101906102309190611e3b565b6116f2565b005b6000606660009054906101000a900473ffffffffffffffffffffffffffffffffffffffff16905090565b60008990506001151561027433846113f6565b6101600151151514156102bc576040517f08c379a00000000000000000000000000000000000000000000000000000000081526004016102b3906121bc565b60405180910390fd5b8073ffffffffffffffffffffffffffffffffffffffff166370a08231336040518263ffffffff1660e01b81526004016102f59190611b94565b60206040518083038186803b15801561030d57600080fd5b505afa158015610321573d6000803e3d6000fd5b505050506040513d601f19601f8201168201806040525081019061034591906121f1565b8b1115610387576040517f08c379a000000000000000000000000000000000000000000000000000000000815260040161037e9061226a565b60405180910390fd5b600083116103ca576040517f08c379a00000000000000000000000000000000000000000000000000000000081526004016103c1906122fc565b60405180910390fd5b6040518061018001604052803373ffffffffffffffffffffffffffffffffffffffff1681526020018d73ffffffffffffffffffffffffffffffffffffffff1681526020018c81526020018b73ffffffffffffffffffffffffffffffffffffffff16815260200187815260200186868080601f016020809104026020016040519081016040528093929190818152602001838380828437600081840152601f19601f8201169050808301925050505050505081526020014281526020018c81526020018a60ff16815260200184815260200189898080601f016020809104026020016040519081016040528093929190818152602001838380828437600081840152601f19601f82011690508083019250505050505050815260200160011515815250606560003373ffffffffffffffffffffffffffffffffffffffff1673ffffffffffffffffffffffffffffffffffffffff168152602001908152602001600020600084815260200190815260200160002060008201518160000160006101000a81548173ffffffffffffffffffffffffffffffffffffffff021916908373ffffffffffffffffffffffffffffffffffffffff16021790555060208201518160010160006101000a81548173ffffffffffffffffffffffffffffffffffffffff021916908373ffffffffffffffffffffffffffffffffffffffff1602179055506040820151816002015560608201518160030160006101000a81548173ffffffffffffffffffffffffffffffffffffffff021916908373ffffffffffffffffffffffffffffffffffffffff1602179055506080820151816004015560a0820151816005019080519060200190610641929190611a05565b5060c0820151816006015560e082015181600701556101008201518160080160006101000a81548160ff021916908360ff160217905550610120820151816009015561014082015181600a0190805190602001906106a0929190611a05565b5061016082015181600b0160006101000a81548160ff02191690831515021790555090505060028b6106d2919061234b565b8173ffffffffffffffffffffffffffffffffffffffff1663dd62ed3e33306040518363ffffffff1660e01b815260040161070d9291906123a5565b60206040518083038186803b15801561072557600080fd5b505afa158015610739573d6000803e3d6000fd5b505050506040513d601f19601f8201168201806040525081019061075d91906121f1565b1015801561081557507fffffffffffffffffffffffffffffffffffffffffffffffffffffffffffffffff8173ffffffffffffffffffffffffffffffffffffffff1663dd62ed3e33306040518363ffffffff1660e01b81526004016107c29291906123a5565b60206040518083038186803b1580156107da57600080fd5b505afa1580156107ee573d6000803e3d6000fd5b505050506040513d601f19601f8201168201806040525081019061081291906121f1565b11155b610854576040517f08c379a000000000000000000000000000000000000000000000000000000000815260040161084b90612440565b60405180910390fd5b8073ffffffffffffffffffffffffffffffffffffffff166323b872dd338e8e6040518463ffffffff1660e01b815260040161089193929190612460565b602060405180830381600087803b1580156108ab57600080fd5b505af11580156108bf573d6000803e3d6000fd5b505050506040513d601f19601f820116820180604052508101906108e391906124c3565b610922576040517f08c379a000000000000000000000000000000000000000000000000000000000815260040161091990612562565b60405180910390fd5b7f28dc0c0b7a09b41daeb1862ae2481422ece709a507502bff27aa26074826a4a46040518061018001604052803373ffffffffffffffffffffffffffffffffffffffff1681526020018e73ffffffffffffffffffffffffffffffffffffffff1681526020018d81526020018c73ffffffffffffffffffffffffffffffffffffffff16815260200188815260200187878080601f016020809104026020016040519081016040528093929190818152602001838380828437600081840152601f19601f8201169050808301925050505050505081526020014281526020018d81526020018b60ff1681526020018581526020018a8a8080601f016020809104026020016040519081016040528093929190818152602001838380828437600081840152601f19601f82011690508083019250505050505050815260200160011515815250604051610a729190612117565b60405180910390a1505050505050505050505050565b6000610a9483836113f6565b90503373ffffffffffffffffffffffffffffffffffffffff16816000015173ffffffffffffffffffffffffffffffffffffffff161480610b0357503373ffffffffffffffffffffffffffffffffffffffff16816020015173ffffffffffffffffffffffffffffffffffffffff16145b610b42576040517f08c379a0000000000000000000000000000000000000000000000000000000008152600401610b39906125f4565b60405180910390fd5b60011515816101600151151514610b8e576040517f08c379a0000000000000000000000000000000000000000000000000000000008152600401610b8590612660565b60405180910390fd5b6000606560008573ffffffffffffffffffffffffffffffffffffffff1673ffffffffffffffffffffffffffffffffffffffff1681526020019081526020016000206000848152602001908152602001600020600b0160006101000a81548160ff0219169083151502179055507f05f55824c10b2bad467859344b623092c47cfa363369614284109a3c461c94e6606560008573ffffffffffffffffffffffffffffffffffffffff1673ffffffffffffffffffffffffffffffffffffffff1681526020019081526020016000206000848152602001908152602001600020604051610c7891906129c8565b60405180910390a1505050565b610c8d611776565b610c9760006117f4565b565b610ca1611776565b80606660006101000a81548173ffffffffffffffffffffffffffffffffffffffff021916908373ffffffffffffffffffffffffffffffffffffffff16021790555050565b6000603360009054906101000a900473ffffffffffffffffffffffffffffffffffffffff16905090565b6000610d1b83836113f6565b9050606660009054906101000a900473ffffffffffffffffffffffffffffffffffffffff1673ffffffffffffffffffffffffffffffffffffffff163373ffffffffffffffffffffffffffffffffffffffff161480610da857503373ffffffffffffffffffffffffffffffffffffffff16816020015173ffffffffffffffffffffffffffffffffffffffff16145b80610de257503373ffffffffffffffffffffffffffffffffffffffff16816000015173ffffffffffffffffffffffffffffffffffffffff16145b610e21576040517f08c379a0000000000000000000000000000000000000000000000000000000008152600401610e1890612a5c565b60405180910390fd5b60011515816101600151151514610e6d576040517f08c379a0000000000000000000000000000000000000000000000000000000008152600401610e6490612ac8565b60405180910390fd5b60011515610e7a826118ba565b15151415610ebd576040517f08c379a0000000000000000000000000000000000000000000000000000000008152600401610eb490612b5a565b60405180910390fd5b6000816060015190508161012001518260c00151610edb9190612b7a565b8260c001818152505081604001518260e00151610ef89190612b7a565b8260e00181815250508073ffffffffffffffffffffffffffffffffffffffff166323b872dd85846020015185604001516040518463ffffffff1660e01b8152600401610f4693929190612460565b602060405180830381600087803b158015610f6057600080fd5b505af1158015610f74573d6000803e3d6000fd5b505050506040513d601f19601f82011682018060405250810190610f9891906124c3565b610fd7576040517f08c379a0000000000000000000000000000000000000000000000000000000008152600401610fce90612c1c565b60405180910390fd5b81606560008673ffffffffffffffffffffffffffffffffffffffff1673ffffffffffffffffffffffffffffffffffffffff168152602001908152602001600020600085815260200190815260200160002060008201518160000160006101000a81548173ffffffffffffffffffffffffffffffffffffffff021916908373ffffffffffffffffffffffffffffffffffffffff16021790555060208201518160010160006101000a81548173ffffffffffffffffffffffffffffffffffffffff021916908373ffffffffffffffffffffffffffffffffffffffff1602179055506040820151816002015560608201518160030160006101000a81548173ffffffffffffffffffffffffffffffffffffffff021916908373ffffffffffffffffffffffffffffffffffffffff1602179055506080820151816004015560a082015181600501908051906020019061112d929190611a05565b5060c0820151816006015560e082015181600701556101008201518160080160006101000a81548160ff021916908360ff160217905550610120820151816009015561014082015181600a01908051906020019061118c929190611a05565b5061016082015181600b0160006101000a81548160ff0219169083151502179055509050507fcce69fa990919105a0bad9405e9c8fa4d651c23201cf12ab4c4a4a25f14e60c3826040516111e09190612117565b60405180910390a150505050565b600083838360405160200161120593929190612c9c565b6040516020818303038152906040528051906020012090509392505050565b60008061123184846113f6565b905060008161012001518260c0015161124a9190612b7a565b90508042111561125f57600092505050611270565b428161126b9190612cc6565b925050505b92915050565b60008060019054906101000a900460ff161590508080156112a75750600160008054906101000a900460ff1660ff16105b806112d457506112b630611920565b1580156112d35750600160008054906101000a900460ff1660ff16145b5b611313576040517f08c379a000000000000000000000000000000000000000000000000000000000815260040161130a90612d6c565b60405180910390fd5b60016000806101000a81548160ff021916908360ff1602179055508015611350576001600060016101000a81548160ff0219169083151502179055505b81606660006101000a81548173ffffffffffffffffffffffffffffffffffffffff021916908373ffffffffffffffffffffffffffffffffffffffff160217905550611399611943565b80156113f25760008060016101000a81548160ff0219169083151502179055507f7f26b83ff96e1f2b6a682f133852f6798a09c465da95921460cefb384740249860016040516113e99190612dd1565b60405180910390a15b5050565b6113fe611a8b565b606560008473ffffffffffffffffffffffffffffffffffffffff1673ffffffffffffffffffffffffffffffffffffffff1681526020019081526020016000206000838152602001908152602001600020604051806101800160405290816000820160009054906101000a900473ffffffffffffffffffffffffffffffffffffffff1673ffffffffffffffffffffffffffffffffffffffff1673ffffffffffffffffffffffffffffffffffffffff1681526020016001820160009054906101000a900473ffffffffffffffffffffffffffffffffffffffff1673ffffffffffffffffffffffffffffffffffffffff1673ffffffffffffffffffffffffffffffffffffffff168152602001600282015481526020016003820160009054906101000a900473ffffffffffffffffffffffffffffffffffffffff1673ffffffffffffffffffffffffffffffffffffffff1673ffffffffffffffffffffffffffffffffffffffff168152602001600482015481526020016005820180546115809061273e565b80601f01602080910402602001604051908101604052809291908181526020018280546115ac9061273e565b80156115f95780601f106115ce576101008083540402835291602001916115f9565b820191906000526020600020905b8154815290600101906020018083116115dc57829003601f168201915b5050505050815260200160068201548152602001600782015481526020016008820160009054906101000a900460ff1660ff1660ff16815260200160098201548152602001600a8201805461164d9061273e565b80601f01602080910402602001604051908101604052809291908181526020018280546116799061273e565b80156116c65780601f1061169b576101008083540402835291602001916116c6565b820191906000526020600020905b8154815290600101906020018083116116a957829003601f168201915b50505050508152602001600b820160009054906101000a900460ff161515151581525050905092915050565b6116fa611776565b600073ffffffffffffffffffffffffffffffffffffffff168173ffffffffffffffffffffffffffffffffffffffff16141561176a576040517f08c379a000000000000000000000000000000000000000000000000000000000815260040161176190612e5e565b60405180910390fd5b611773816117f4565b50565b61177e61199c565b73ffffffffffffffffffffffffffffffffffffffff1661179c610ce5565b73ffffffffffffffffffffffffffffffffffffffff16146117f2576040517f08c379a00000000000000000000000000000000000000000000000000000000081526004016117e990612eca565b60405180910390fd5b565b6000603360009054906101000a900473ffffffffffffffffffffffffffffffffffffffff16905081603360006101000a81548173ffffffffffffffffffffffffffffffffffffffff021916908373ffffffffffffffffffffffffffffffffffffffff1602179055508173ffffffffffffffffffffffffffffffffffffffff168173ffffffffffffffffffffffffffffffffffffffff167f8be0079c531659141344cd1fd0a4f28419497f9722a3daafe3b4186f6b6457e060405160405180910390a35050565b6000808261012001518360c001516118d29190612b7a565b90506000601e60648561012001516118ea9190612f19565b6118f4919061234b565b905080826119029190612cc6565b4211156119145760009250505061191b565b6001925050505b919050565b6000808273ffffffffffffffffffffffffffffffffffffffff163b119050919050565b600060019054906101000a900460ff16611992576040517f08c379a000000000000000000000000000000000000000000000000000000000815260040161198990612fbc565b60405180910390fd5b61199a6119a4565b565b600033905090565b600060019054906101000a900460ff166119f3576040517f08c379a00000000000000000000000000000000000000000000000000000000081526004016119ea90612fbc565b60405180910390fd5b611a036119fe61199c565b6117f4565b565b828054611a119061273e565b90600052602060002090601f016020900481019282611a335760008555611a7a565b82601f10611a4c57805160ff1916838001178555611a7a565b82800160010185558215611a7a579182015b82811115611a79578251825591602001919060010190611a5e565b5b509050611a879190611b36565b5090565b604051806101800160405280600073ffffffffffffffffffffffffffffffffffffffff168152602001600073ffffffffffffffffffffffffffffffffffffffff16815260200160008152602001600073ffffffffffffffffffffffffffffffffffffffff16815260200160008019168152602001606081526020016000815260200160008152602001600060ff16815260200160008152602001606081526020016000151581525090565b5b80821115611b4f576000816000905550600101611b37565b5090565b600073ffffffffffffffffffffffffffffffffffffffff82169050919050565b6000611b7e82611b53565b9050919050565b611b8e81611b73565b82525050565b6000602082019050611ba96000830184611b85565b92915050565b600080fd5b600080fd5b611bc281611b73565b8114611bcd57600080fd5b50565b600081359050611bdf81611bb9565b92915050565b6000819050919050565b611bf881611be5565b8114611c0357600080fd5b50565b600081359050611c1581611bef565b92915050565b600060ff82169050919050565b611c3181611c1b565b8114611c3c57600080fd5b50565b600081359050611c4e81611c28565b92915050565b600080fd5b600080fd5b600080fd5b60008083601f840112611c7957611c78611c54565b5b8235905067ffffffffffffffff811115611c9657611c95611c59565b5b602083019150836001820283011115611cb257611cb1611c5e565b5b9250929050565b6000819050919050565b611ccc81611cb9565b8114611cd757600080fd5b50565b600081359050611ce981611cc3565b92915050565b60008060008060008060008060008060006101208c8e031215611d1557611d14611baf565b5b6000611d238e828f01611bd0565b9b50506020611d348e828f01611c06565b9a50506040611d458e828f01611bd0565b9950506060611d568e828f01611c3f565b98505060808c013567ffffffffffffffff811115611d7757611d76611bb4565b5b611d838e828f01611c63565b975097505060a0611d968e828f01611cda565b95505060c08c013567ffffffffffffffff811115611db757611db6611bb4565b5b611dc38e828f01611c63565b945094505060e0611dd68e828f01611c06565b925050610100611de88e828f01611cda565b9150509295989b509295989b9093969950565b60008060408385031215611e1257611e11611baf565b5b6000611e2085828601611bd0565b9250506020611e3185828601611cda565b9150509250929050565b600060208284031215611e5157611e50611baf565b5b6000611e5f84828501611bd0565b91505092915050565b600080600060408486031215611e8157611e80611baf565b5b6000611e8f86828701611cda565b935050602084013567ffffffffffffffff811115611eb057611eaf611bb4565b5b611ebc86828701611c63565b92509250509250925092565b611ed181611cb9565b82525050565b6000602082019050611eec6000830184611ec8565b92915050565b611efb81611be5565b82525050565b6000602082019050611f166000830184611ef2565b92915050565b611f2581611b73565b82525050565b611f3481611be5565b82525050565b611f4381611cb9565b82525050565b600081519050919050565b600082825260208201905092915050565b60005b83811015611f83578082015181840152602081019050611f68565b83811115611f92576000848401525b50505050565b6000601f19601f8301169050919050565b6000611fb482611f49565b611fbe8185611f54565b9350611fce818560208601611f65565b611fd781611f98565b840191505092915050565b611feb81611c1b565b82525050565b60008115159050919050565b61200681611ff1565b82525050565b6000610180830160008301516120256000860182611f1c565b5060208301516120386020860182611f1c565b50604083015161204b6040860182611f2b565b50606083015161205e6060860182611f1c565b5060808301516120716080860182611f3a565b5060a083015184820360a08601526120898282611fa9565b91505060c083015161209e60c0860182611f2b565b5060e08301516120b160e0860182611f2b565b506101008301516120c6610100860182611fe2565b506101208301516120db610120860182611f2b565b506101408301518482036101408601526120f58282611fa9565b91505061016083015161210c610160860182611ffd565b508091505092915050565b60006020820190508181036000830152612131818461200c565b905092915050565b600082825260208201905092915050565b7f41637469766520737562736372697074696f6e20616c7265616479206578697360008201527f74732e0000000000000000000000000000000000000000000000000000000000602082015250565b60006121a6602383612139565b91506121b18261214a565b604082019050919050565b600060208201905081810360008301526121d581612199565b9050919050565b6000815190506121eb81611bef565b92915050565b60006020828403121561220757612206611baf565b5b6000612215848285016121dc565b91505092915050565b7f496e73756666696369656e7420746f6b656e2062616c616e63652e0000000000600082015250565b6000612254601b83612139565b915061225f8261221e565b602082019050919050565b6000602082019050818103600083015261228381612247565b9050919050565b7f537562736372697074696f6e20706572696f64206d757374206265206772656160008201527f746572207468616e20302e000000000000000000000000000000000000000000602082015250565b60006122e6602b83612139565b91506122f18261228a565b604082019050919050565b60006020820190508181036000830152612315816122d9565b9050919050565b7f4e487b7100000000000000000000000000000000000000000000000000000000600052601160045260246000fd5b600061235682611be5565b915061236183611be5565b9250817fffffffffffffffffffffffffffffffffffffffffffffffffffffffffffffffff048311821515161561239a5761239961231c565b5b828202905092915050565b60006040820190506123ba6000830185611b85565b6123c76020830184611b85565b9392505050565b7f416c6c6f77616e6365206f6620285f737562736372697074696f6e436f73742060008201527f2a2032292072657175697265642e000000000000000000000000000000000000602082015250565b600061242a602e83612139565b9150612435826123ce565b604082019050919050565b600060208201905081810360008301526124598161241d565b9050919050565b60006060820190506124756000830186611b85565b6124826020830185611b85565b61248f6040830184611ef2565b949350505050565b6124a081611ff1565b81146124ab57600080fd5b50565b6000815190506124bd81612497565b92915050565b6000602082840312156124d9576124d8611baf565b5b60006124e7848285016124ae565b91505092915050565b7f496e697469616c20737562736372697074696f6e207061796d656e742066616960008201527f6c65642e00000000000000000000000000000000000000000000000000000000602082015250565b600061254c602483612139565b9150612557826124f0565b604082019050919050565b6000602082019050818103600083015261257b8161253f565b9050919050565b7f4f6e6c7920737562736372697074696f6e20706172746965732063616e20636160008201527f6e63656c206120737562736372697074696f6e2e000000000000000000000000602082015250565b60006125de603483612139565b91506125e982612582565b604082019050919050565b6000602082019050818103600083015261260d816125d1565b9050919050565b7f537562736372697074696f6e20616c726561647920696e6163746976652e0000600082015250565b600061264a601e83612139565b915061265582612614565b602082019050919050565b600060208201905081810360008301526126798161263d565b9050919050565b60008160001c9050919050565b600073ffffffffffffffffffffffffffffffffffffffff82169050919050565b60006126c06126bb83612680565b61268d565b9050919050565b6000819050919050565b60006126e46126df83612680565b6126c7565b9050919050565b6000819050919050565b600061270861270383612680565b6126eb565b9050919050565b7f4e487b7100000000000000000000000000000000000000000000000000000000600052602260045260246000fd5b6000600282049050600182168061275657607f821691505b6020821081141561276a5761276961270f565b5b50919050565b60008190508160005260206000209050919050565b600081546127928161273e565b61279c8186611f54565b945060018216600081146127b757600181146127c9576127fc565b60ff19831686526020860193506127fc565b6127d285612770565b60005b838110156127f4578154818901526001820191506020810190506127d5565b808801955050505b50505092915050565b600060ff82169050919050565b600061282561282083612680565b612805565b9050919050565b600060ff82169050919050565b600061284c61284783612680565b61282c565b9050919050565b60006101808301600080840154905061286b816126ad565b6128786000870182611f1c565b5060018401549050612889816126ad565b6128966020870182611f1c565b50600284015490506128a7816126d1565b6128b46040870182611f2b565b50600384015490506128c5816126ad565b6128d26060870182611f1c565b50600484015490506128e3816126f5565b6128f06080870182611f3a565b506005840185830360a08701526129078382612785565b9250506006840154905061291a816126d1565b61292760c0870182611f2b565b5060078401549050612938816126d1565b61294560e0870182611f2b565b506008840154905061295681612812565b612964610100870182611fe2565b5060098401549050612975816126d1565b612983610120870182611f2b565b50600a840185830361014087015261299b8382612785565b925050600b84015490506129ae81612839565b6129bc610160870182611ffd565b50819250505092915050565b600060208201905081810360008301526129e28184612853565b905092915050565b7f4f6e6c7920737562736372697074696f6e20706179656573206d61792065786560008201527f63757465206120737562736372697074696f6e207061796d656e742e00000000602082015250565b6000612a46603c83612139565b9150612a51826129ea565b604082019050919050565b60006020820190508181036000830152612a7581612a39565b9050919050565b7f537562736372697074696f6e20697320696e6163746976652e00000000000000600082015250565b6000612ab2601983612139565b9150612abd82612a7c565b602082019050919050565b60006020820190508181036000830152612ae181612aa5565b9050919050565b7f537562736372697074696f6e20616c7265616479207061696420666f7220746860008201527f697320706572696f642e00000000000000000000000000000000000000000000602082015250565b6000612b44602a83612139565b9150612b4f82612ae8565b604082019050919050565b60006020820190508181036000830152612b7381612b37565b9050919050565b6000612b8582611be5565b9150612b9083611be5565b9250827fffffffffffffffffffffffffffffffffffffffffffffffffffffffffffffffff03821115612bc557612bc461231c565b5b828201905092915050565b7f537562736372697074696f6e207061796d656e74206661696c65642e00000000600082015250565b6000612c06601c83612139565b9150612c1182612bd0565b602082019050919050565b60006020820190508181036000830152612c3581612bf9565b9050919050565b6000819050919050565b612c57612c5282611cb9565b612c3c565b82525050565b600081905092915050565b82818337600083830152505050565b6000612c838385612c5d565b9350612c90838584612c68565b82840190509392505050565b6000612ca88286612c46565b602082019150612cb9828486612c77565b9150819050949350505050565b6000612cd182611be5565b9150612cdc83611be5565b925082821015612cef57612cee61231c565b5b828203905092915050565b7f496e697469616c697a61626c653a20636f6e747261637420697320616c72656160008201527f647920696e697469616c697a6564000000000000000000000000000000000000602082015250565b6000612d56602e83612139565b9150612d6182612cfa565b604082019050919050565b60006020820190508181036000830152612d8581612d49565b9050919050565b6000819050919050565b6000819050919050565b6000612dbb612db6612db184612d8c565b612d96565b611c1b565b9050919050565b612dcb81612da0565b82525050565b6000602082019050612de66000830184612dc2565b92915050565b7f4f776e61626c653a206e6577206f776e657220697320746865207a65726f206160008201527f6464726573730000000000000000000000000000000000000000000000000000602082015250565b6000612e48602683612139565b9150612e5382612dec565b604082019050919050565b60006020820190508181036000830152612e7781612e3b565b9050919050565b7f4f776e61626c653a2063616c6c6572206973206e6f7420746865206f776e6572600082015250565b6000612eb4602083612139565b9150612ebf82612e7e565b602082019050919050565b60006020820190508181036000830152612ee381612ea7565b9050919050565b7f4e487b7100000000000000000000000000000000000000000000000000000000600052601260045260246000fd5b6000612f2482611be5565b9150612f2f83611be5565b925082612f3f57612f3e612eea565b5b828204905092915050565b7f496e697469616c697a61626c653a20636f6e7472616374206973206e6f74206960008201527f6e697469616c697a696e67000000000000000000000000000000000000000000602082015250565b6000612fa6602b83612139565b9150612fb182612f4a565b604082019050919050565b60006020820190508181036000830152612fd581612f99565b905091905056fea26469706673582212200e8613febaae2778d8380124b55f89f9714bdaf0fb69b96857cd6be2dbb19fda64736f6c63430008090033",
  "linkReferences": {},
  "deployedLinkReferences": {}
}