{
  "_format": "hh-sol-artifact-1",
  "contractName": "RecurringPayments",
  "sourceName": "contracts/ReccuringPaymnets.sol",
  "abi": [
    {
      "anonymous": false,
      "inputs": [
        {
          "indexed": false,
          "internalType": "uint8",
          "name": "version",
          "type": "uint8"
        }
      ],
      "name": "Initialized",
      "type": "event"
    },
    {
      "anonymous": false,
      "inputs": [
        {
          "components": [
            {
              "internalType": "address",
              "name": "Customer",
              "type": "address"
            },
            {
              "internalType": "address",
              "name": "Payee",
              "type": "address"
            },
            {
              "internalType": "uint256",
              "name": "Allowance",
              "type": "uint256"
            },
            {
              "internalType": "address",
              "name": "TokenAddress",
              "type": "address"
            },
            {
              "internalType": "bytes32",
              "name": "PubKey",
              "type": "bytes32"
            },
            {
              "internalType": "string",
              "name": "Email",
              "type": "string"
            },
            {
              "internalType": "uint256",
              "name": "LastExecutionDate",
              "type": "uint256"
            },
            {
              "internalType": "uint256",
              "name": "PaidAmount",
              "type": "uint256"
            },
            {
              "internalType": "uint8",
              "name": "SubscriptionPlan",
              "type": "uint8"
            },
            {
              "internalType": "uint256",
              "name": "SubscriptionPeriod",
              "type": "uint256"
            },
            {
              "internalType": "string",
              "name": "SubscriptionService",
              "type": "string"
            },
            {
              "internalType": "bool",
              "name": "IsActive",
              "type": "bool"
            }
          ],
          "indexed": false,
          "internalType": "struct RecurringPayments.Subscription",
          "name": "",
          "type": "tuple"
        }
      ],
      "name": "NewSubscription",
      "type": "event"
    },
    {
      "anonymous": false,
      "inputs": [
        {
          "indexed": true,
          "internalType": "address",
          "name": "previousOwner",
          "type": "address"
        },
        {
          "indexed": true,
          "internalType": "address",
          "name": "newOwner",
          "type": "address"
        }
      ],
      "name": "OwnershipTransferred",
      "type": "event"
    },
    {
      "anonymous": false,
      "inputs": [
        {
          "components": [
            {
              "internalType": "address",
              "name": "Customer",
              "type": "address"
            },
            {
              "internalType": "address",
              "name": "Payee",
              "type": "address"
            },
            {
              "internalType": "uint256",
              "name": "Allowance",
              "type": "uint256"
            },
            {
              "internalType": "address",
              "name": "TokenAddress",
              "type": "address"
            },
            {
              "internalType": "bytes32",
              "name": "PubKey",
              "type": "bytes32"
            },
            {
              "internalType": "string",
              "name": "Email",
              "type": "string"
            },
            {
              "internalType": "uint256",
              "name": "LastExecutionDate",
              "type": "uint256"
            },
            {
              "internalType": "uint256",
              "name": "PaidAmount",
              "type": "uint256"
            },
            {
              "internalType": "uint8",
              "name": "SubscriptionPlan",
              "type": "uint8"
            },
            {
              "internalType": "uint256",
              "name": "SubscriptionPeriod",
              "type": "uint256"
            },
            {
              "internalType": "string",
              "name": "SubscriptionService",
              "type": "string"
            },
            {
              "internalType": "bool",
              "name": "IsActive",
              "type": "bool"
            }
          ],
          "indexed": false,
          "internalType": "struct RecurringPayments.Subscription",
          "name": "",
          "type": "tuple"
        }
      ],
      "name": "SubscriptionCancelled",
      "type": "event"
    },
    {
      "anonymous": false,
      "inputs": [
        {
          "components": [
            {
              "internalType": "address",
              "name": "Customer",
              "type": "address"
            },
            {
              "internalType": "address",
              "name": "Payee",
              "type": "address"
            },
            {
              "internalType": "uint256",
              "name": "Allowance",
              "type": "uint256"
            },
            {
              "internalType": "address",
              "name": "TokenAddress",
              "type": "address"
            },
            {
              "internalType": "bytes32",
              "name": "PubKey",
              "type": "bytes32"
            },
            {
              "internalType": "string",
              "name": "Email",
              "type": "string"
            },
            {
              "internalType": "uint256",
              "name": "LastExecutionDate",
              "type": "uint256"
            },
            {
              "internalType": "uint256",
              "name": "PaidAmount",
              "type": "uint256"
            },
            {
              "internalType": "uint8",
              "name": "SubscriptionPlan",
              "type": "uint8"
            },
            {
              "internalType": "uint256",
              "name": "SubscriptionPeriod",
              "type": "uint256"
            },
            {
              "internalType": "string",
              "name": "SubscriptionService",
              "type": "string"
            },
            {
              "internalType": "bool",
              "name": "IsActive",
              "type": "bool"
            }
          ],
          "indexed": false,
          "internalType": "struct RecurringPayments.Subscription",
          "name": "",
          "type": "tuple"
        }
      ],
      "name": "SubscriptionPaid",
      "type": "event"
    },
    {
      "inputs": [],
      "name": "EverDuesAutobillerAddress",
      "outputs": [
        {
          "internalType": "address",
          "name": "",
          "type": "address"
        }
      ],
      "stateMutability": "view",
      "type": "function"
    },
    {
      "inputs": [
        {
          "internalType": "address",
          "name": "_customer",
          "type": "address"
        },
        {
          "internalType": "bytes32",
          "name": "_pubkey",
          "type": "bytes32"
        },
        {
          "internalType": "string",
          "name": "_service_address",
          "type": "string"
        }
      ],
      "name": "cancelSubscription",
      "outputs": [],
      "stateMutability": "nonpayable",
      "type": "function"
    },
    {
      "inputs": [
        {
          "internalType": "address",
          "name": "_payee",
          "type": "address"
        },
        {
          "internalType": "uint256",
          "name": "_subscriptionCost",
          "type": "uint256"
        },
        {
          "internalType": "address",
          "name": "_token",
          "type": "address"
        },
        {
          "internalType": "uint8",
          "name": "_subscriptionPlan",
          "type": "uint8"
        },
        {
          "internalType": "string",
          "name": "_subscriptionService",
          "type": "string"
        },
        {
          "internalType": "bytes32",
          "name": "_pubkey",
          "type": "bytes32"
        },
        {
          "internalType": "string",
          "name": "_email",
          "type": "string"
        },
        {
          "internalType": "uint256",
          "name": "_subscriptionPeriod",
          "type": "uint256"
        }
      ],
      "name": "createSubscription",
      "outputs": [],
      "stateMutability": "nonpayable",
      "type": "function"
    },
    {
      "inputs": [
        {
          "internalType": "address",
          "name": "_customer",
          "type": "address"
        },
        {
          "internalType": "bytes32",
          "name": "_pubkey",
          "type": "bytes32"
        },
        {
          "internalType": "string",
          "name": "_service_address",
          "type": "string"
        }
      ],
      "name": "executePayment",
      "outputs": [],
      "stateMutability": "nonpayable",
      "type": "function"
    },
    {
      "inputs": [
        {
          "internalType": "address",
          "name": "_customer",
          "type": "address"
        },
        {
          "internalType": "bytes32",
          "name": "_pubkey",
          "type": "bytes32"
        },
        {
          "internalType": "string",
          "name": "_service_address",
          "type": "string"
        }
      ],
      "name": "getSubscription",
      "outputs": [
        {
          "components": [
            {
              "internalType": "address",
              "name": "Customer",
              "type": "address"
            },
            {
              "internalType": "address",
              "name": "Payee",
              "type": "address"
            },
            {
              "internalType": "uint256",
              "name": "Allowance",
              "type": "uint256"
            },
            {
              "internalType": "address",
              "name": "TokenAddress",
              "type": "address"
            },
            {
              "internalType": "bytes32",
              "name": "PubKey",
              "type": "bytes32"
            },
            {
              "internalType": "string",
              "name": "Email",
              "type": "string"
            },
            {
              "internalType": "uint256",
              "name": "LastExecutionDate",
              "type": "uint256"
            },
            {
              "internalType": "uint256",
              "name": "PaidAmount",
              "type": "uint256"
            },
            {
              "internalType": "uint8",
              "name": "SubscriptionPlan",
              "type": "uint8"
            },
            {
              "internalType": "uint256",
              "name": "SubscriptionPeriod",
              "type": "uint256"
            },
            {
              "internalType": "string",
              "name": "SubscriptionService",
              "type": "string"
            },
            {
              "internalType": "bool",
              "name": "IsActive",
              "type": "bool"
            }
          ],
          "internalType": "struct RecurringPayments.Subscription",
          "name": "",
          "type": "tuple"
        }
      ],
      "stateMutability": "view",
      "type": "function"
    },
    {
      "inputs": [
        {
          "internalType": "address",
          "name": "_autobiller",
          "type": "address"
        }
      ],
      "name": "initialize",
      "outputs": [],
      "stateMutability": "nonpayable",
      "type": "function"
    },
    {
      "inputs": [],
      "name": "owner",
      "outputs": [
        {
          "internalType": "address",
          "name": "",
          "type": "address"
        }
      ],
      "stateMutability": "view",
      "type": "function"
    },
    {
      "inputs": [],
      "name": "renounceOwnership",
      "outputs": [],
      "stateMutability": "nonpayable",
      "type": "function"
    },
    {
      "inputs": [
        {
          "internalType": "address",
          "name": "_customer",
          "type": "address"
        },
        {
          "internalType": "bytes32",
          "name": "_pubkey",
          "type": "bytes32"
        },
        {
          "internalType": "string",
          "name": "_service_address",
          "type": "string"
        }
      ],
      "name": "subscriptionTimeRemaining",
      "outputs": [
        {
          "internalType": "uint256",
          "name": "",
          "type": "uint256"
        }
      ],
      "stateMutability": "view",
      "type": "function"
    },
    {
      "inputs": [
        {
          "internalType": "address",
          "name": "newOwner",
          "type": "address"
        }
      ],
      "name": "transferOwnership",
      "outputs": [],
      "stateMutability": "nonpayable",
      "type": "function"
    },
    {
      "inputs": [
        {
          "internalType": "address",
          "name": "_autobiller",
          "type": "address"
        }
      ],
      "name": "updateEverDuesAutobillerAddress",
      "outputs": [],
      "stateMutability": "nonpayable",
      "type": "function"
    }
  ],
  "bytecode": "0x608060405234801561001057600080fd5b50612e80806100206000396000f3fe608060405234801561001057600080fd5b50600436106100a95760003560e01c80638da5cb5b116100715780638da5cb5b1461013e5780639b9dd5c31461015c578063a15322a214610178578063b3a27cf814610194578063c4d66de8146101c4578063f2fde38b146101e0576100a9565b80631c78b136146100ae57806361973adb146100ca5780636f5dc4ba146100e8578063715018a61461011857806380370f6814610122575b600080fd5b6100c860048036038101906100c39190611be5565b6101fc565b005b6100d2610437565b6040516100df9190611c63565b60405180910390f35b61010260048036038101906100fd9190611be5565b610461565b60405161010f9190611c97565b60405180910390f35b6101206104b8565b005b61013c60048036038101906101379190611cb2565b6104cc565b005b610146610518565b6040516101539190611c63565b60405180910390f35b61017660048036038101906101719190611d44565b610542565b005b610192600480360381019061018d9190611be5565b610c5d565b005b6101ae60048036038101906101a99190611be5565b611193565b6040516101bb919061201c565b60405180910390f35b6101de60048036038101906101d99190611cb2565b6114b8565b005b6101fa60048036038101906101f59190611cb2565b611630565b005b3373ffffffffffffffffffffffffffffffffffffffff1661021e848484611193565b6000015173ffffffffffffffffffffffffffffffffffffffff16148061027d57503373ffffffffffffffffffffffffffffffffffffffff16610261848484611193565b6020015173ffffffffffffffffffffffffffffffffffffffff16145b6102bc576040517f08c379a00000000000000000000000000000000000000000000000000000000081526004016102b3906120c1565b60405180910390fd5b600115156102cb848484611193565b6101600151151514610312576040517f08c379a00000000000000000000000000000000000000000000000000000000081526004016103099061212d565b60405180910390fd5b600082826040516020016103279291906121aa565b6040516020818303038152906040528051906020012090506000606560008673ffffffffffffffffffffffffffffffffffffffff1673ffffffffffffffffffffffffffffffffffffffff1681526020019081526020016000206000838152602001908152602001600020600b0160006101000a81548160ff0219169083151502179055507f05f55824c10b2bad467859344b623092c47cfa363369614284109a3c461c94e6606560008673ffffffffffffffffffffffffffffffffffffffff1673ffffffffffffffffffffffffffffffffffffffff1681526020019081526020016000206000838152602001908152602001600020604051610429919061251a565b60405180910390a150505050565b6000606660009054906101000a900473ffffffffffffffffffffffffffffffffffffffff16905090565b60008061046f858585611193565b610120015161047f868686611193565b60c0015161048d919061256b565b9050804211156104a15760009150506104b1565b42816104ad91906125c1565b9150505b9392505050565b6104c06116b4565b6104ca6000611732565b565b6104d46116b4565b80606660006101000a81548173ffffffffffffffffffffffffffffffffffffffff021916908373ffffffffffffffffffffffffffffffffffffffff16021790555050565b6000603360009054906101000a900473ffffffffffffffffffffffffffffffffffffffff16905090565b600086905060011515610556338688611193565b61016001511515141561059e576040517f08c379a000000000000000000000000000000000000000000000000000000000815260040161059590612667565b60405180910390fd5b8073ffffffffffffffffffffffffffffffffffffffff166370a08231336040518263ffffffff1660e01b81526004016105d79190611c63565b60206040518083038186803b1580156105ef57600080fd5b505afa158015610603573d6000803e3d6000fd5b505050506040513d601f19601f82011682018060405250810190610627919061269c565b881115610669576040517f08c379a000000000000000000000000000000000000000000000000000000000815260040161066090612715565b60405180910390fd5b600082116106ac576040517f08c379a00000000000000000000000000000000000000000000000000000000081526004016106a3906127a7565b60405180910390fd5b6040518061018001604052803373ffffffffffffffffffffffffffffffffffffffff1681526020018a73ffffffffffffffffffffffffffffffffffffffff1681526020018981526020018873ffffffffffffffffffffffffffffffffffffffff1681526020018581526020018481526020014281526020018981526020018760ff16815260200183815260200186815260200160011515815250606560003373ffffffffffffffffffffffffffffffffffffffff1673ffffffffffffffffffffffffffffffffffffffff1681526020019081526020016000206000868860405160200161079a9291906121aa565b60405160208183030381529060405280519060200120815260200190815260200160002060008201518160000160006101000a81548173ffffffffffffffffffffffffffffffffffffffff021916908373ffffffffffffffffffffffffffffffffffffffff16021790555060208201518160010160006101000a81548173ffffffffffffffffffffffffffffffffffffffff021916908373ffffffffffffffffffffffffffffffffffffffff1602179055506040820151816002015560608201518160030160006101000a81548173ffffffffffffffffffffffffffffffffffffffff021916908373ffffffffffffffffffffffffffffffffffffffff1602179055506080820151816004015560a08201518160050190805190602001906108c39291906118a9565b5060c0820151816006015560e082015181600701556101008201518160080160006101000a81548160ff021916908360ff160217905550610120820151816009015561014082015181600a0190805190602001906109229291906118a9565b5061016082015181600b0160006101000a81548160ff02191690831515021790555090505060028861095491906127c7565b8173ffffffffffffffffffffffffffffffffffffffff1663dd62ed3e33306040518363ffffffff1660e01b815260040161098f929190612821565b60206040518083038186803b1580156109a757600080fd5b505afa1580156109bb573d6000803e3d6000fd5b505050506040513d601f19601f820116820180604052508101906109df919061269c565b10158015610a9757507fffffffffffffffffffffffffffffffffffffffffffffffffffffffffffffffff8173ffffffffffffffffffffffffffffffffffffffff1663dd62ed3e33306040518363ffffffff1660e01b8152600401610a44929190612821565b60206040518083038186803b158015610a5c57600080fd5b505afa158015610a70573d6000803e3d6000fd5b505050506040513d601f19601f82011682018060405250810190610a94919061269c565b11155b610ad6576040517f08c379a0000000000000000000000000000000000000000000000000000000008152600401610acd906128bc565b60405180910390fd5b8073ffffffffffffffffffffffffffffffffffffffff166323b872dd338b8b6040518463ffffffff1660e01b8152600401610b13939291906128dc565b602060405180830381600087803b158015610b2d57600080fd5b505af1158015610b41573d6000803e3d6000fd5b505050506040513d601f19601f82011682018060405250810190610b65919061293f565b610ba4576040517f08c379a0000000000000000000000000000000000000000000000000000000008152600401610b9b906129de565b60405180910390fd5b7f28dc0c0b7a09b41daeb1862ae2481422ece709a507502bff27aa26074826a4a4606560003373ffffffffffffffffffffffffffffffffffffffff1673ffffffffffffffffffffffffffffffffffffffff16815260200190815260200160002060008688604051602001610c199291906121aa565b604051602081830303815290604052805190602001208152602001908152602001600020604051610c4a919061251a565b60405180910390a1505050505050505050565b3373ffffffffffffffffffffffffffffffffffffffff16610c7f848484611193565b6020015173ffffffffffffffffffffffffffffffffffffffff161480610cde57503373ffffffffffffffffffffffffffffffffffffffff16610cc2338484611193565b6000015173ffffffffffffffffffffffffffffffffffffffff16145b80610d365750606660009054906101000a900473ffffffffffffffffffffffffffffffffffffffff1673ffffffffffffffffffffffffffffffffffffffff163373ffffffffffffffffffffffffffffffffffffffff16145b610d75576040517f08c379a0000000000000000000000000000000000000000000000000000000008152600401610d6c90612a70565b60405180910390fd5b60011515610d84848484611193565b6101600151151514610dcb576040517f08c379a0000000000000000000000000000000000000000000000000000000008152600401610dc290612adc565b60405180910390fd5b60011515610dda8484846117f8565b15151415610e1d576040517f08c379a0000000000000000000000000000000000000000000000000000000008152600401610e1490612b6e565b60405180910390fd5b6000610e2a848484611193565b60600151905060008383604051602001610e459291906121aa565b604051602081830303815290604052805190602001209050606560008673ffffffffffffffffffffffffffffffffffffffff1673ffffffffffffffffffffffffffffffffffffffff168152602001908152602001600020600082815260200190815260200160002060090154606560008773ffffffffffffffffffffffffffffffffffffffff1673ffffffffffffffffffffffffffffffffffffffff168152602001908152602001600020600083815260200190815260200160002060060154610f0f919061256b565b606560008773ffffffffffffffffffffffffffffffffffffffff1673ffffffffffffffffffffffffffffffffffffffff168152602001908152602001600020600083815260200190815260200160002060060181905550610f71858585611193565b60400151606560008773ffffffffffffffffffffffffffffffffffffffff1673ffffffffffffffffffffffffffffffffffffffff168152602001908152602001600020600083815260200190815260200160002060070154610fd3919061256b565b606560008773ffffffffffffffffffffffffffffffffffffffff1673ffffffffffffffffffffffffffffffffffffffff1681526020019081526020016000206000838152602001908152602001600020600701819055508173ffffffffffffffffffffffffffffffffffffffff166323b872dd8633611053898989611193565b604001516040518463ffffffff1660e01b8152600401611075939291906128dc565b602060405180830381600087803b15801561108f57600080fd5b505af11580156110a3573d6000803e3d6000fd5b505050506040513d601f19601f820116820180604052508101906110c7919061293f565b611106576040517f08c379a00000000000000000000000000000000000000000000000000000000081526004016110fd90612bda565b60405180910390fd5b7fcce69fa990919105a0bad9405e9c8fa4d651c23201cf12ab4c4a4a25f14e60c3606560008773ffffffffffffffffffffffffffffffffffffffff1673ffffffffffffffffffffffffffffffffffffffff1681526020019081526020016000206000838152602001908152602001600020604051611184919061251a565b60405180910390a15050505050565b61119b61192f565b606560008573ffffffffffffffffffffffffffffffffffffffff1673ffffffffffffffffffffffffffffffffffffffff168152602001908152602001600020600084846040516020016111ef9291906121aa565b604051602081830303815290604052805190602001208152602001908152602001600020604051806101800160405290816000820160009054906101000a900473ffffffffffffffffffffffffffffffffffffffff1673ffffffffffffffffffffffffffffffffffffffff1673ffffffffffffffffffffffffffffffffffffffff1681526020016001820160009054906101000a900473ffffffffffffffffffffffffffffffffffffffff1673ffffffffffffffffffffffffffffffffffffffff1673ffffffffffffffffffffffffffffffffffffffff168152602001600282015481526020016003820160009054906101000a900473ffffffffffffffffffffffffffffffffffffffff1673ffffffffffffffffffffffffffffffffffffffff1673ffffffffffffffffffffffffffffffffffffffff1681526020016004820154815260200160058201805461134590612290565b80601f016020809104026020016040519081016040528092919081815260200182805461137190612290565b80156113be5780601f10611393576101008083540402835291602001916113be565b820191906000526020600020905b8154815290600101906020018083116113a157829003601f168201915b5050505050815260200160068201548152602001600782015481526020016008820160009054906101000a900460ff1660ff1660ff16815260200160098201548152602001600a8201805461141290612290565b80601f016020809104026020016040519081016040528092919081815260200182805461143e90612290565b801561148b5780601f106114605761010080835404028352916020019161148b565b820191906000526020600020905b81548152906001019060200180831161146e57829003601f168201915b50505050508152602001600b820160009054906101000a900460ff16151515158152505090509392505050565b60008060019054906101000a900460ff161590508080156114e95750600160008054906101000a900460ff1660ff16105b8061151657506114f83061187e565b1580156115155750600160008054906101000a900460ff1660ff16145b5b611555576040517f08c379a000000000000000000000000000000000000000000000000000000000815260040161154c90612c6c565b60405180910390fd5b60016000806101000a81548160ff021916908360ff1602179055508015611592576001600060016101000a81548160ff0219169083151502179055505b81606660006101000a81548173ffffffffffffffffffffffffffffffffffffffff021916908373ffffffffffffffffffffffffffffffffffffffff160217905550801561162c5760008060016101000a81548160ff0219169083151502179055507f7f26b83ff96e1f2b6a682f133852f6798a09c465da95921460cefb384740249860016040516116239190612cd1565b60405180910390a15b5050565b6116386116b4565b600073ffffffffffffffffffffffffffffffffffffffff168173ffffffffffffffffffffffffffffffffffffffff1614156116a8576040517f08c379a000000000000000000000000000000000000000000000000000000000815260040161169f90612d5e565b60405180910390fd5b6116b181611732565b50565b6116bc6118a1565b73ffffffffffffffffffffffffffffffffffffffff166116da610518565b73ffffffffffffffffffffffffffffffffffffffff1614611730576040517f08c379a000000000000000000000000000000000000000000000000000000000815260040161172790612dca565b60405180910390fd5b565b6000603360009054906101000a900473ffffffffffffffffffffffffffffffffffffffff16905081603360006101000a81548173ffffffffffffffffffffffffffffffffffffffff021916908373ffffffffffffffffffffffffffffffffffffffff1602179055508173ffffffffffffffffffffffffffffffffffffffff168173ffffffffffffffffffffffffffffffffffffffff167f8be0079c531659141344cd1fd0a4f28419497f9722a3daafe3b4186f6b6457e060405160405180910390a35050565b600080611806858585611193565b6101200151611816868686611193565b60c00151611824919061256b565b90506000601e6064611837888888611193565b61012001516118469190612e19565b61185091906127c7565b9050808261185e91906125c1565b42111561187057600092505050611877565b6001925050505b9392505050565b6000808273ffffffffffffffffffffffffffffffffffffffff163b119050919050565b600033905090565b8280546118b590612290565b90600052602060002090601f0160209004810192826118d7576000855561191e565b82601f106118f057805160ff191683800117855561191e565b8280016001018555821561191e579182015b8281111561191d578251825591602001919060010190611902565b5b50905061192b91906119da565b5090565b604051806101800160405280600073ffffffffffffffffffffffffffffffffffffffff168152602001600073ffffffffffffffffffffffffffffffffffffffff16815260200160008152602001600073ffffffffffffffffffffffffffffffffffffffff16815260200160008019168152602001606081526020016000815260200160008152602001600060ff16815260200160008152602001606081526020016000151581525090565b5b808211156119f35760008160009055506001016119db565b5090565b6000604051905090565b600080fd5b600080fd5b600073ffffffffffffffffffffffffffffffffffffffff82169050919050565b6000611a3682611a0b565b9050919050565b611a4681611a2b565b8114611a5157600080fd5b50565b600081359050611a6381611a3d565b92915050565b6000819050919050565b611a7c81611a69565b8114611a8757600080fd5b50565b600081359050611a9981611a73565b92915050565b600080fd5b600080fd5b6000601f19601f8301169050919050565b7f4e487b7100000000000000000000000000000000000000000000000000000000600052604160045260246000fd5b611af282611aa9565b810181811067ffffffffffffffff82111715611b1157611b10611aba565b5b80604052505050565b6000611b246119f7565b9050611b308282611ae9565b919050565b600067ffffffffffffffff821115611b5057611b4f611aba565b5b611b5982611aa9565b9050602081019050919050565b82818337600083830152505050565b6000611b88611b8384611b35565b611b1a565b905082815260208101848484011115611ba457611ba3611aa4565b5b611baf848285611b66565b509392505050565b600082601f830112611bcc57611bcb611a9f565b5b8135611bdc848260208601611b75565b91505092915050565b600080600060608486031215611bfe57611bfd611a01565b5b6000611c0c86828701611a54565b9350506020611c1d86828701611a8a565b925050604084013567ffffffffffffffff811115611c3e57611c3d611a06565b5b611c4a86828701611bb7565b9150509250925092565b611c5d81611a2b565b82525050565b6000602082019050611c786000830184611c54565b92915050565b6000819050919050565b611c9181611c7e565b82525050565b6000602082019050611cac6000830184611c88565b92915050565b600060208284031215611cc857611cc7611a01565b5b6000611cd684828501611a54565b91505092915050565b611ce881611c7e565b8114611cf357600080fd5b50565b600081359050611d0581611cdf565b92915050565b600060ff82169050919050565b611d2181611d0b565b8114611d2c57600080fd5b50565b600081359050611d3e81611d18565b92915050565b600080600080600080600080610100898b031215611d6557611d64611a01565b5b6000611d738b828c01611a54565b9850506020611d848b828c01611cf6565b9750506040611d958b828c01611a54565b9650506060611da68b828c01611d2f565b955050608089013567ffffffffffffffff811115611dc757611dc6611a06565b5b611dd38b828c01611bb7565b94505060a0611de48b828c01611a8a565b93505060c089013567ffffffffffffffff811115611e0557611e04611a06565b5b611e118b828c01611bb7565b92505060e0611e228b828c01611cf6565b9150509295985092959890939650565b611e3b81611a2b565b82525050565b611e4a81611c7e565b82525050565b611e5981611a69565b82525050565b600081519050919050565b600082825260208201905092915050565b60005b83811015611e99578082015181840152602081019050611e7e565b83811115611ea8576000848401525b50505050565b6000611eb982611e5f565b611ec38185611e6a565b9350611ed3818560208601611e7b565b611edc81611aa9565b840191505092915050565b611ef081611d0b565b82525050565b60008115159050919050565b611f0b81611ef6565b82525050565b600061018083016000830151611f2a6000860182611e32565b506020830151611f3d6020860182611e32565b506040830151611f506040860182611e41565b506060830151611f636060860182611e32565b506080830151611f766080860182611e50565b5060a083015184820360a0860152611f8e8282611eae565b91505060c0830151611fa360c0860182611e41565b5060e0830151611fb660e0860182611e41565b50610100830151611fcb610100860182611ee7565b50610120830151611fe0610120860182611e41565b50610140830151848203610140860152611ffa8282611eae565b915050610160830151612011610160860182611f02565b508091505092915050565b600060208201905081810360008301526120368184611f11565b905092915050565b600082825260208201905092915050565b7f4f6e6c7920737562736372697074696f6e20706172746965732063616e20636160008201527f6e63656c206120737562736372697074696f6e2e000000000000000000000000602082015250565b60006120ab60348361203e565b91506120b68261204f565b604082019050919050565b600060208201905081810360008301526120da8161209e565b9050919050565b7f537562736372697074696f6e20616c726561647920696e6163746976652e0000600082015250565b6000612117601e8361203e565b9150612122826120e1565b602082019050919050565b600060208201905081810360008301526121468161210a565b9050919050565b6000819050919050565b61216861216382611a69565b61214d565b82525050565b600081905092915050565b600061218482611e5f565b61218e818561216e565b935061219e818560208601611e7b565b80840191505092915050565b60006121b68285612157565b6020820191506121c68284612179565b91508190509392505050565b60008160001c9050919050565b600073ffffffffffffffffffffffffffffffffffffffff82169050919050565b600061221261220d836121d2565b6121df565b9050919050565b6000819050919050565b6000612236612231836121d2565b612219565b9050919050565b6000819050919050565b600061225a612255836121d2565b61223d565b9050919050565b7f4e487b7100000000000000000000000000000000000000000000000000000000600052602260045260246000fd5b600060028204905060018216806122a857607f821691505b602082108114156122bc576122bb612261565b5b50919050565b60008190508160005260206000209050919050565b600081546122e481612290565b6122ee8186611e6a565b94506001821660008114612309576001811461231b5761234e565b60ff198316865260208601935061234e565b612324856122c2565b60005b8381101561234657815481890152600182019150602081019050612327565b808801955050505b50505092915050565b600060ff82169050919050565b6000612377612372836121d2565b612357565b9050919050565b600060ff82169050919050565b600061239e612399836121d2565b61237e565b9050919050565b6000610180830160008084015490506123bd816121ff565b6123ca6000870182611e32565b50600184015490506123db816121ff565b6123e86020870182611e32565b50600284015490506123f981612223565b6124066040870182611e41565b5060038401549050612417816121ff565b6124246060870182611e32565b506004840154905061243581612247565b6124426080870182611e50565b506005840185830360a087015261245983826122d7565b9250506006840154905061246c81612223565b61247960c0870182611e41565b506007840154905061248a81612223565b61249760e0870182611e41565b50600884015490506124a881612364565b6124b6610100870182611ee7565b50600984015490506124c781612223565b6124d5610120870182611e41565b50600a84018583036101408701526124ed83826122d7565b925050600b84015490506125008161238b565b61250e610160870182611f02565b50819250505092915050565b6000602082019050818103600083015261253481846123a5565b905092915050565b7f4e487b7100000000000000000000000000000000000000000000000000000000600052601160045260246000fd5b600061257682611c7e565b915061258183611c7e565b9250827fffffffffffffffffffffffffffffffffffffffffffffffffffffffffffffffff038211156125b6576125b561253c565b5b828201905092915050565b60006125cc82611c7e565b91506125d783611c7e565b9250828210156125ea576125e961253c565b5b828203905092915050565b7f41637469766520737562736372697074696f6e20616c7265616479206578697360008201527f74732e0000000000000000000000000000000000000000000000000000000000602082015250565b600061265160238361203e565b915061265c826125f5565b604082019050919050565b6000602082019050818103600083015261268081612644565b9050919050565b60008151905061269681611cdf565b92915050565b6000602082840312156126b2576126b1611a01565b5b60006126c084828501612687565b91505092915050565b7f496e73756666696369656e7420746f6b656e2062616c616e63652e0000000000600082015250565b60006126ff601b8361203e565b915061270a826126c9565b602082019050919050565b6000602082019050818103600083015261272e816126f2565b9050919050565b7f537562736372697074696f6e20706572696f64206d757374206265206772656160008201527f746572207468616e20302e000000000000000000000000000000000000000000602082015250565b6000612791602b8361203e565b915061279c82612735565b604082019050919050565b600060208201905081810360008301526127c081612784565b9050919050565b60006127d282611c7e565b91506127dd83611c7e565b9250817fffffffffffffffffffffffffffffffffffffffffffffffffffffffffffffffff04831182151516156128165761281561253c565b5b828202905092915050565b60006040820190506128366000830185611c54565b6128436020830184611c54565b9392505050565b7f416c6c6f77616e6365206f6620285f737562736372697074696f6e436f73742060008201527f2a2032292072657175697265642e000000000000000000000000000000000000602082015250565b60006128a6602e8361203e565b91506128b18261284a565b604082019050919050565b600060208201905081810360008301526128d581612899565b9050919050565b60006060820190506128f16000830186611c54565b6128fe6020830185611c54565b61290b6040830184611c88565b949350505050565b61291c81611ef6565b811461292757600080fd5b50565b60008151905061293981612913565b92915050565b60006020828403121561295557612954611a01565b5b60006129638482850161292a565b91505092915050565b7f496e697469616c20737562736372697074696f6e207061796d656e742066616960008201527f6c65642e00000000000000000000000000000000000000000000000000000000602082015250565b60006129c860248361203e565b91506129d38261296c565b604082019050919050565b600060208201905081810360008301526129f7816129bb565b9050919050565b7f4f6e6c7920737562736372697074696f6e20706179656573206d61792065786560008201527f63757465206120737562736372697074696f6e207061796d656e742e00000000602082015250565b6000612a5a603c8361203e565b9150612a65826129fe565b604082019050919050565b60006020820190508181036000830152612a8981612a4d565b9050919050565b7f537562736372697074696f6e20697320696e6163746976652e00000000000000600082015250565b6000612ac660198361203e565b9150612ad182612a90565b602082019050919050565b60006020820190508181036000830152612af581612ab9565b9050919050565b7f537562736372697074696f6e20616c7265616479207061696420666f7220746860008201527f697320706572696f642e00000000000000000000000000000000000000000000602082015250565b6000612b58602a8361203e565b9150612b6382612afc565b604082019050919050565b60006020820190508181036000830152612b8781612b4b565b9050919050565b7f537562736372697074696f6e207061796d656e74206661696c65642e00000000600082015250565b6000612bc4601c8361203e565b9150612bcf82612b8e565b602082019050919050565b60006020820190508181036000830152612bf381612bb7565b9050919050565b7f496e697469616c697a61626c653a20636f6e747261637420697320616c72656160008201527f647920696e697469616c697a6564000000000000000000000000000000000000602082015250565b6000612c56602e8361203e565b9150612c6182612bfa565b604082019050919050565b60006020820190508181036000830152612c8581612c49565b9050919050565b6000819050919050565b6000819050919050565b6000612cbb612cb6612cb184612c8c565b612c96565b611d0b565b9050919050565b612ccb81612ca0565b82525050565b6000602082019050612ce66000830184612cc2565b92915050565b7f4f776e61626c653a206e6577206f776e657220697320746865207a65726f206160008201527f6464726573730000000000000000000000000000000000000000000000000000602082015250565b6000612d4860268361203e565b9150612d5382612cec565b604082019050919050565b60006020820190508181036000830152612d7781612d3b565b9050919050565b7f4f776e61626c653a2063616c6c6572206973206e6f7420746865206f776e6572600082015250565b6000612db460208361203e565b9150612dbf82612d7e565b602082019050919050565b60006020820190508181036000830152612de381612da7565b9050919050565b7f4e487b7100000000000000000000000000000000000000000000000000000000600052601260045260246000fd5b6000612e2482611c7e565b9150612e2f83611c7e565b925082612e3f57612e3e612dea565b5b82820490509291505056fea2646970667358221220122e8ec20bae1a4c6fbdbd9fab8c5edaf45360598749b5dba6e050ba1cfaf94c64736f6c63430008090033",
  "linkReferences": {},
  "deployedLinkReferences": {}
}