{
  "_format": "hh-sol-artifact-1",
  "contractName": "RecurringPayments",
  "sourceName": "contracts/ReccuringPaymnets.sol",
  "abi": [
    {
      "anonymous": false,
      "inputs": [
        {
          "indexed": false,
          "internalType": "uint8",
          "name": "version",
          "type": "uint8"
        }
      ],
      "name": "Initialized",
      "type": "event"
    },
    {
      "anonymous": false,
      "inputs": [
        {
          "components": [
            {
              "internalType": "address",
              "name": "Customer",
              "type": "address"
            },
            {
              "internalType": "address",
              "name": "Payee",
              "type": "address"
            },
            {
              "internalType": "uint256",
              "name": "Allowance",
              "type": "uint256"
            },
            {
              "internalType": "address",
              "name": "TokenAddress",
              "type": "address"
            },
            {
              "internalType": "bytes32",
              "name": "PubKey",
              "type": "bytes32"
            },
            {
              "internalType": "string",
              "name": "Email",
              "type": "string"
            },
            {
              "internalType": "uint256",
              "name": "LastExecutionDate",
              "type": "uint256"
            },
            {
              "internalType": "uint256",
              "name": "PaidAmount",
              "type": "uint256"
            },
            {
              "internalType": "uint8",
              "name": "SubscriptionPlan",
              "type": "uint8"
            },
            {
              "internalType": "uint256",
              "name": "SubscriptionPeriod",
              "type": "uint256"
            },
            {
              "internalType": "string",
              "name": "SubscriptionService",
              "type": "string"
            },
            {
              "internalType": "bool",
              "name": "IsActive",
              "type": "bool"
            }
          ],
          "indexed": false,
          "internalType": "struct RecurringPayments.Subscription",
          "name": "",
          "type": "tuple"
        }
      ],
      "name": "NewSubscription",
      "type": "event"
    },
    {
      "anonymous": false,
      "inputs": [
        {
          "indexed": true,
          "internalType": "address",
          "name": "previousOwner",
          "type": "address"
        },
        {
          "indexed": true,
          "internalType": "address",
          "name": "newOwner",
          "type": "address"
        }
      ],
      "name": "OwnershipTransferred",
      "type": "event"
    },
    {
      "anonymous": false,
      "inputs": [
        {
          "components": [
            {
              "internalType": "address",
              "name": "Customer",
              "type": "address"
            },
            {
              "internalType": "address",
              "name": "Payee",
              "type": "address"
            },
            {
              "internalType": "uint256",
              "name": "Allowance",
              "type": "uint256"
            },
            {
              "internalType": "address",
              "name": "TokenAddress",
              "type": "address"
            },
            {
              "internalType": "bytes32",
              "name": "PubKey",
              "type": "bytes32"
            },
            {
              "internalType": "string",
              "name": "Email",
              "type": "string"
            },
            {
              "internalType": "uint256",
              "name": "LastExecutionDate",
              "type": "uint256"
            },
            {
              "internalType": "uint256",
              "name": "PaidAmount",
              "type": "uint256"
            },
            {
              "internalType": "uint8",
              "name": "SubscriptionPlan",
              "type": "uint8"
            },
            {
              "internalType": "uint256",
              "name": "SubscriptionPeriod",
              "type": "uint256"
            },
            {
              "internalType": "string",
              "name": "SubscriptionService",
              "type": "string"
            },
            {
              "internalType": "bool",
              "name": "IsActive",
              "type": "bool"
            }
          ],
          "indexed": false,
          "internalType": "struct RecurringPayments.Subscription",
          "name": "",
          "type": "tuple"
        }
      ],
      "name": "SubscriptionCancelled",
      "type": "event"
    },
    {
      "anonymous": false,
      "inputs": [
        {
          "components": [
            {
              "internalType": "address",
              "name": "Customer",
              "type": "address"
            },
            {
              "internalType": "address",
              "name": "Payee",
              "type": "address"
            },
            {
              "internalType": "uint256",
              "name": "Allowance",
              "type": "uint256"
            },
            {
              "internalType": "address",
              "name": "TokenAddress",
              "type": "address"
            },
            {
              "internalType": "bytes32",
              "name": "PubKey",
              "type": "bytes32"
            },
            {
              "internalType": "string",
              "name": "Email",
              "type": "string"
            },
            {
              "internalType": "uint256",
              "name": "LastExecutionDate",
              "type": "uint256"
            },
            {
              "internalType": "uint256",
              "name": "PaidAmount",
              "type": "uint256"
            },
            {
              "internalType": "uint8",
              "name": "SubscriptionPlan",
              "type": "uint8"
            },
            {
              "internalType": "uint256",
              "name": "SubscriptionPeriod",
              "type": "uint256"
            },
            {
              "internalType": "string",
              "name": "SubscriptionService",
              "type": "string"
            },
            {
              "internalType": "bool",
              "name": "IsActive",
              "type": "bool"
            }
          ],
          "indexed": false,
          "internalType": "struct RecurringPayments.Subscription",
          "name": "",
          "type": "tuple"
        }
      ],
      "name": "SubscriptionPaid",
      "type": "event"
    },
    {
      "inputs": [
        {
          "internalType": "address",
          "name": "_customer",
          "type": "address"
        },
        {
          "internalType": "bytes32",
          "name": "_pubkey",
          "type": "bytes32"
        },
        {
          "internalType": "string",
          "name": "_service_address",
          "type": "string"
        }
      ],
      "name": "cancelSubscription",
      "outputs": [],
      "stateMutability": "nonpayable",
      "type": "function"
    },
    {
      "inputs": [
        {
          "internalType": "address",
          "name": "_payee",
          "type": "address"
        },
        {
          "internalType": "uint256",
          "name": "_subscriptionCost",
          "type": "uint256"
        },
        {
          "internalType": "address",
          "name": "_token",
          "type": "address"
        },
        {
          "internalType": "uint8",
          "name": "_subscriptionPlan",
          "type": "uint8"
        },
        {
          "internalType": "string",
          "name": "_subscriptionService",
          "type": "string"
        },
        {
          "internalType": "bytes32",
          "name": "_pubkey",
          "type": "bytes32"
        },
        {
          "internalType": "string",
          "name": "_email",
          "type": "string"
        },
        {
          "internalType": "uint256",
          "name": "_subscriptionPeriod",
          "type": "uint256"
        }
      ],
      "name": "createSubscription",
      "outputs": [],
      "stateMutability": "nonpayable",
      "type": "function"
    },
    {
      "inputs": [],
      "name": "everDuesAutobillerAddress",
      "outputs": [
        {
          "internalType": "address",
          "name": "",
          "type": "address"
        }
      ],
      "stateMutability": "view",
      "type": "function"
    },
    {
      "inputs": [
        {
          "internalType": "address",
          "name": "_customer",
          "type": "address"
        },
        {
          "internalType": "bytes32",
          "name": "_sid",
          "type": "bytes32"
        }
      ],
      "name": "executePayment",
      "outputs": [],
      "stateMutability": "nonpayable",
      "type": "function"
    },
    {
      "inputs": [
        {
          "internalType": "address",
          "name": "_customer",
          "type": "address"
        },
        {
          "internalType": "bytes32",
          "name": "sid",
          "type": "bytes32"
        }
      ],
      "name": "getSubscription",
      "outputs": [
        {
          "components": [
            {
              "internalType": "address",
              "name": "Customer",
              "type": "address"
            },
            {
              "internalType": "address",
              "name": "Payee",
              "type": "address"
            },
            {
              "internalType": "uint256",
              "name": "Allowance",
              "type": "uint256"
            },
            {
              "internalType": "address",
              "name": "TokenAddress",
              "type": "address"
            },
            {
              "internalType": "bytes32",
              "name": "PubKey",
              "type": "bytes32"
            },
            {
              "internalType": "string",
              "name": "Email",
              "type": "string"
            },
            {
              "internalType": "uint256",
              "name": "LastExecutionDate",
              "type": "uint256"
            },
            {
              "internalType": "uint256",
              "name": "PaidAmount",
              "type": "uint256"
            },
            {
              "internalType": "uint8",
              "name": "SubscriptionPlan",
              "type": "uint8"
            },
            {
              "internalType": "uint256",
              "name": "SubscriptionPeriod",
              "type": "uint256"
            },
            {
              "internalType": "string",
              "name": "SubscriptionService",
              "type": "string"
            },
            {
              "internalType": "bool",
              "name": "IsActive",
              "type": "bool"
            }
          ],
          "internalType": "struct RecurringPayments.Subscription",
          "name": "",
          "type": "tuple"
        }
      ],
      "stateMutability": "view",
      "type": "function"
    },
    {
      "inputs": [
        {
          "internalType": "address",
          "name": "_sender",
          "type": "address"
        }
      ],
      "name": "initialize",
      "outputs": [],
      "stateMutability": "nonpayable",
      "type": "function"
    },
    {
      "inputs": [],
      "name": "owner",
      "outputs": [
        {
          "internalType": "address",
          "name": "",
          "type": "address"
        }
      ],
      "stateMutability": "view",
      "type": "function"
    },
    {
      "inputs": [],
      "name": "renounceOwnership",
      "outputs": [],
      "stateMutability": "nonpayable",
      "type": "function"
    },
    {
      "inputs": [
        {
          "internalType": "address",
          "name": "_customer",
          "type": "address"
        },
        {
          "internalType": "bytes32",
          "name": "_pubkey",
          "type": "bytes32"
        },
        {
          "internalType": "string",
          "name": "_service_address",
          "type": "string"
        }
      ],
      "name": "subscriptionTimeRemaining",
      "outputs": [
        {
          "internalType": "uint256",
          "name": "",
          "type": "uint256"
        }
      ],
      "stateMutability": "view",
      "type": "function"
    },
    {
      "inputs": [
        {
          "internalType": "address",
          "name": "newOwner",
          "type": "address"
        }
      ],
      "name": "transferOwnership",
      "outputs": [],
      "stateMutability": "nonpayable",
      "type": "function"
    },
    {
      "inputs": [
        {
          "internalType": "address",
          "name": "_autobiller",
          "type": "address"
        }
      ],
      "name": "updateEverDuesAutobillerAddress",
      "outputs": [],
      "stateMutability": "nonpayable",
      "type": "function"
    }
  ],
  "bytecode": "0x608060405234801561001057600080fd5b50612fe0806100206000396000f3fe608060405234801561001057600080fd5b50600436106100a95760003560e01c80638da5cb5b116100715780638da5cb5b1461013e5780639823087d1461015c5780639b9dd5c314610178578063c4d66de814610194578063d7557040146101b0578063f2fde38b146101e0576100a9565b806302c38c03146100ae5780631c78b136146100cc5780636f5dc4ba146100e8578063715018a61461011857806380370f6814610122575b600080fd5b6100b66101fc565b6040516100c39190611b8d565b60405180910390f35b6100e660048036038101906100e19190611c79565b610226565b005b61010260048036038101906100fd9190611c79565b610435565b60405161010f9190611d06565b60405180910390f35b61012061049a565b005b61013c60048036038101906101379190611d21565b6104ae565b005b6101466104fa565b6040516101539190611b8d565b60405180910390f35b61017660048036038101906101719190611d4e565b610524565b005b610192600480360381019061018d9190611df3565b610a03565b005b6101ae60048036038101906101a99190611d21565b611239565b005b6101ca60048036038101906101c59190611d4e565b6113b9565b6040516101d791906120e5565b60405180910390f35b6101fa60048036038101906101f59190611d21565b6116b5565b005b6000606660009054906101000a900473ffffffffffffffffffffffffffffffffffffffff16905090565b6000610233848484611739565b9050600061024186836113b9565b90503373ffffffffffffffffffffffffffffffffffffffff16816000015173ffffffffffffffffffffffffffffffffffffffff1614806102b057503373ffffffffffffffffffffffffffffffffffffffff16816020015173ffffffffffffffffffffffffffffffffffffffff16145b6102ef576040517f08c379a00000000000000000000000000000000000000000000000000000000081526004016102e69061218a565b60405180910390fd5b6001151581610160015115151461033b576040517f08c379a0000000000000000000000000000000000000000000000000000000008152600401610332906121f6565b60405180910390fd5b6000606560008873ffffffffffffffffffffffffffffffffffffffff1673ffffffffffffffffffffffffffffffffffffffff1681526020019081526020016000206000848152602001908152602001600020600b0160006101000a81548160ff0219169083151502179055507f05f55824c10b2bad467859344b623092c47cfa363369614284109a3c461c94e6606560008873ffffffffffffffffffffffffffffffffffffffff1673ffffffffffffffffffffffffffffffffffffffff1681526020019081526020016000206000848152602001908152602001600020604051610425919061255e565b60405180910390a1505050505050565b600080610443858585611739565b9050600061045187836113b9565b905060008161012001518260c0015161046a91906125af565b9050804211156104805760009350505050610492565b428161048c9190612605565b93505050505b949350505050565b6104a261176f565b6104ac60006117ed565b565b6104b661176f565b80606660006101000a81548173ffffffffffffffffffffffffffffffffffffffff021916908373ffffffffffffffffffffffffffffffffffffffff16021790555050565b6000603360009054906101000a900473ffffffffffffffffffffffffffffffffffffffff16905090565b600061053083836113b9565b9050606660009054906101000a900473ffffffffffffffffffffffffffffffffffffffff1673ffffffffffffffffffffffffffffffffffffffff163373ffffffffffffffffffffffffffffffffffffffff1614806105bd57503373ffffffffffffffffffffffffffffffffffffffff16816020015173ffffffffffffffffffffffffffffffffffffffff16145b806105f757503373ffffffffffffffffffffffffffffffffffffffff16816000015173ffffffffffffffffffffffffffffffffffffffff16145b610636576040517f08c379a000000000000000000000000000000000000000000000000000000000815260040161062d906126ab565b60405180910390fd5b60011515816101600151151514610682576040517f08c379a000000000000000000000000000000000000000000000000000000000815260040161067990612717565b60405180910390fd5b6001151561068f826118b3565b151514156106d2576040517f08c379a00000000000000000000000000000000000000000000000000000000081526004016106c9906127a9565b60405180910390fd5b6000816060015190508161012001518260c001516106f091906125af565b8260c001818152505081604001518260e0015161070d91906125af565b8260e00181815250508073ffffffffffffffffffffffffffffffffffffffff166323b872dd85846020015185604001516040518463ffffffff1660e01b815260040161075b939291906127c9565b602060405180830381600087803b15801561077557600080fd5b505af1158015610789573d6000803e3d6000fd5b505050506040513d601f19601f820116820180604052508101906107ad919061282c565b6107ec576040517f08c379a00000000000000000000000000000000000000000000000000000000081526004016107e3906128a5565b60405180910390fd5b81606560008673ffffffffffffffffffffffffffffffffffffffff1673ffffffffffffffffffffffffffffffffffffffff168152602001908152602001600020600085815260200190815260200160002060008201518160000160006101000a81548173ffffffffffffffffffffffffffffffffffffffff021916908373ffffffffffffffffffffffffffffffffffffffff16021790555060208201518160010160006101000a81548173ffffffffffffffffffffffffffffffffffffffff021916908373ffffffffffffffffffffffffffffffffffffffff1602179055506040820151816002015560608201518160030160006101000a81548173ffffffffffffffffffffffffffffffffffffffff021916908373ffffffffffffffffffffffffffffffffffffffff1602179055506080820151816004015560a08201518160050190805190602001906109429291906119fe565b5060c0820151816006015560e082015181600701556101008201518160080160006101000a81548160ff021916908360ff160217905550610120820151816009015561014082015181600a0190805190602001906109a19291906119fe565b5061016082015181600b0160006101000a81548160ff0219169083151502179055509050507fcce69fa990919105a0bad9405e9c8fa4d651c23201cf12ab4c4a4a25f14e60c3826040516109f591906120e5565b60405180910390a150505050565b60008890506000610a15868989611739565b905060011515610a2533836113b9565b610160015115151415610a6d576040517f08c379a0000000000000000000000000000000000000000000000000000000008152600401610a6490612937565b60405180910390fd5b8173ffffffffffffffffffffffffffffffffffffffff166370a08231336040518263ffffffff1660e01b8152600401610aa69190611b8d565b60206040518083038186803b158015610abe57600080fd5b505afa158015610ad2573d6000803e3d6000fd5b505050506040513d601f19601f82011682018060405250810190610af6919061296c565b8b1115610b38576040517f08c379a0000000000000000000000000000000000000000000000000000000008152600401610b2f906129e5565b60405180910390fd5b60008311610b7b576040517f08c379a0000000000000000000000000000000000000000000000000000000008152600401610b7290612a77565b60405180910390fd5b6040518061018001604052803373ffffffffffffffffffffffffffffffffffffffff1681526020018d73ffffffffffffffffffffffffffffffffffffffff1681526020018c81526020018b73ffffffffffffffffffffffffffffffffffffffff16815260200187815260200186868080601f016020809104026020016040519081016040528093929190818152602001838380828437600081840152601f19601f8201169050808301925050505050505081526020014281526020018c81526020018a60ff16815260200184815260200189898080601f016020809104026020016040519081016040528093929190818152602001838380828437600081840152601f19601f82011690508083019250505050505050815260200160011515815250606560003373ffffffffffffffffffffffffffffffffffffffff1673ffffffffffffffffffffffffffffffffffffffff168152602001908152602001600020600083815260200190815260200160002060008201518160000160006101000a81548173ffffffffffffffffffffffffffffffffffffffff021916908373ffffffffffffffffffffffffffffffffffffffff16021790555060208201518160010160006101000a81548173ffffffffffffffffffffffffffffffffffffffff021916908373ffffffffffffffffffffffffffffffffffffffff1602179055506040820151816002015560608201518160030160006101000a81548173ffffffffffffffffffffffffffffffffffffffff021916908373ffffffffffffffffffffffffffffffffffffffff1602179055506080820151816004015560a0820151816005019080519060200190610df29291906119fe565b5060c0820151816006015560e082015181600701556101008201518160080160006101000a81548160ff021916908360ff160217905550610120820151816009015561014082015181600a019080519060200190610e519291906119fe565b5061016082015181600b0160006101000a81548160ff02191690831515021790555090505060028b610e839190612a97565b8273ffffffffffffffffffffffffffffffffffffffff1663dd62ed3e33306040518363ffffffff1660e01b8152600401610ebe929190612af1565b60206040518083038186803b158015610ed657600080fd5b505afa158015610eea573d6000803e3d6000fd5b505050506040513d601f19601f82011682018060405250810190610f0e919061296c565b10158015610fc657507fffffffffffffffffffffffffffffffffffffffffffffffffffffffffffffffff8273ffffffffffffffffffffffffffffffffffffffff1663dd62ed3e33306040518363ffffffff1660e01b8152600401610f73929190612af1565b60206040518083038186803b158015610f8b57600080fd5b505afa158015610f9f573d6000803e3d6000fd5b505050506040513d601f19601f82011682018060405250810190610fc3919061296c565b11155b611005576040517f08c379a0000000000000000000000000000000000000000000000000000000008152600401610ffc90612b8c565b60405180910390fd5b8173ffffffffffffffffffffffffffffffffffffffff166323b872dd338e8e6040518463ffffffff1660e01b8152600401611042939291906127c9565b602060405180830381600087803b15801561105c57600080fd5b505af1158015611070573d6000803e3d6000fd5b505050506040513d601f19601f82011682018060405250810190611094919061282c565b6110d3576040517f08c379a00000000000000000000000000000000000000000000000000000000081526004016110ca90612c1e565b60405180910390fd5b7f28dc0c0b7a09b41daeb1862ae2481422ece709a507502bff27aa26074826a4a46040518061018001604052803373ffffffffffffffffffffffffffffffffffffffff1681526020018e73ffffffffffffffffffffffffffffffffffffffff1681526020018d81526020018c73ffffffffffffffffffffffffffffffffffffffff16815260200188815260200187878080601f016020809104026020016040519081016040528093929190818152602001838380828437600081840152601f19601f8201169050808301925050505050505081526020014281526020018d81526020018b60ff1681526020018581526020018a8a8080601f016020809104026020016040519081016040528093929190818152602001838380828437600081840152601f19601f8201169050808301925050505050505081526020016001151581525060405161122391906120e5565b60405180910390a1505050505050505050505050565b60008060019054906101000a900460ff1615905080801561126a5750600160008054906101000a900460ff1660ff16105b80611297575061127930611919565b1580156112965750600160008054906101000a900460ff1660ff16145b5b6112d6576040517f08c379a00000000000000000000000000000000000000000000000000000000081526004016112cd90612cb0565b60405180910390fd5b60016000806101000a81548160ff021916908360ff1602179055508015611313576001600060016101000a81548160ff0219169083151502179055505b81606660006101000a81548173ffffffffffffffffffffffffffffffffffffffff021916908373ffffffffffffffffffffffffffffffffffffffff16021790555061135c61193c565b80156113b55760008060016101000a81548160ff0219169083151502179055507f7f26b83ff96e1f2b6a682f133852f6798a09c465da95921460cefb384740249860016040516113ac9190612d15565b60405180910390a15b5050565b6113c1611a84565b606560008473ffffffffffffffffffffffffffffffffffffffff1673ffffffffffffffffffffffffffffffffffffffff1681526020019081526020016000206000838152602001908152602001600020604051806101800160405290816000820160009054906101000a900473ffffffffffffffffffffffffffffffffffffffff1673ffffffffffffffffffffffffffffffffffffffff1673ffffffffffffffffffffffffffffffffffffffff1681526020016001820160009054906101000a900473ffffffffffffffffffffffffffffffffffffffff1673ffffffffffffffffffffffffffffffffffffffff1673ffffffffffffffffffffffffffffffffffffffff168152602001600282015481526020016003820160009054906101000a900473ffffffffffffffffffffffffffffffffffffffff1673ffffffffffffffffffffffffffffffffffffffff1673ffffffffffffffffffffffffffffffffffffffff16815260200160048201548152602001600582018054611543906122d4565b80601f016020809104026020016040519081016040528092919081815260200182805461156f906122d4565b80156115bc5780601f10611591576101008083540402835291602001916115bc565b820191906000526020600020905b81548152906001019060200180831161159f57829003601f168201915b5050505050815260200160068201548152602001600782015481526020016008820160009054906101000a900460ff1660ff1660ff16815260200160098201548152602001600a82018054611610906122d4565b80601f016020809104026020016040519081016040528092919081815260200182805461163c906122d4565b80156116895780601f1061165e57610100808354040283529160200191611689565b820191906000526020600020905b81548152906001019060200180831161166c57829003601f168201915b50505050508152602001600b820160009054906101000a900460ff161515151581525050905092915050565b6116bd61176f565b600073ffffffffffffffffffffffffffffffffffffffff168173ffffffffffffffffffffffffffffffffffffffff16141561172d576040517f08c379a000000000000000000000000000000000000000000000000000000000815260040161172490612da2565b60405180910390fd5b611736816117ed565b50565b600083838360405160200161175093929190612e22565b6040516020818303038152906040528051906020012090509392505050565b611777611995565b73ffffffffffffffffffffffffffffffffffffffff166117956104fa565b73ffffffffffffffffffffffffffffffffffffffff16146117eb576040517f08c379a00000000000000000000000000000000000000000000000000000000081526004016117e290612e98565b60405180910390fd5b565b6000603360009054906101000a900473ffffffffffffffffffffffffffffffffffffffff16905081603360006101000a81548173ffffffffffffffffffffffffffffffffffffffff021916908373ffffffffffffffffffffffffffffffffffffffff1602179055508173ffffffffffffffffffffffffffffffffffffffff168173ffffffffffffffffffffffffffffffffffffffff167f8be0079c531659141344cd1fd0a4f28419497f9722a3daafe3b4186f6b6457e060405160405180910390a35050565b6000808261012001518360c001516118cb91906125af565b90506000601e60648561012001516118e39190612ee7565b6118ed9190612a97565b905080826118fb9190612605565b42111561190d57600092505050611914565b6001925050505b919050565b6000808273ffffffffffffffffffffffffffffffffffffffff163b119050919050565b600060019054906101000a900460ff1661198b576040517f08c379a000000000000000000000000000000000000000000000000000000000815260040161198290612f8a565b60405180910390fd5b61199361199d565b565b600033905090565b600060019054906101000a900460ff166119ec576040517f08c379a00000000000000000000000000000000000000000000000000000000081526004016119e390612f8a565b60405180910390fd5b6119fc6119f7611995565b6117ed565b565b828054611a0a906122d4565b90600052602060002090601f016020900481019282611a2c5760008555611a73565b82601f10611a4557805160ff1916838001178555611a73565b82800160010185558215611a73579182015b82811115611a72578251825591602001919060010190611a57565b5b509050611a809190611b2f565b5090565b604051806101800160405280600073ffffffffffffffffffffffffffffffffffffffff168152602001600073ffffffffffffffffffffffffffffffffffffffff16815260200160008152602001600073ffffffffffffffffffffffffffffffffffffffff16815260200160008019168152602001606081526020016000815260200160008152602001600060ff16815260200160008152602001606081526020016000151581525090565b5b80821115611b48576000816000905550600101611b30565b5090565b600073ffffffffffffffffffffffffffffffffffffffff82169050919050565b6000611b7782611b4c565b9050919050565b611b8781611b6c565b82525050565b6000602082019050611ba26000830184611b7e565b92915050565b600080fd5b600080fd5b611bbb81611b6c565b8114611bc657600080fd5b50565b600081359050611bd881611bb2565b92915050565b6000819050919050565b611bf181611bde565b8114611bfc57600080fd5b50565b600081359050611c0e81611be8565b92915050565b600080fd5b600080fd5b600080fd5b60008083601f840112611c3957611c38611c14565b5b8235905067ffffffffffffffff811115611c5657611c55611c19565b5b602083019150836001820283011115611c7257611c71611c1e565b5b9250929050565b60008060008060608587031215611c9357611c92611ba8565b5b6000611ca187828801611bc9565b9450506020611cb287828801611bff565b935050604085013567ffffffffffffffff811115611cd357611cd2611bad565b5b611cdf87828801611c23565b925092505092959194509250565b6000819050919050565b611d0081611ced565b82525050565b6000602082019050611d1b6000830184611cf7565b92915050565b600060208284031215611d3757611d36611ba8565b5b6000611d4584828501611bc9565b91505092915050565b60008060408385031215611d6557611d64611ba8565b5b6000611d7385828601611bc9565b9250506020611d8485828601611bff565b9150509250929050565b611d9781611ced565b8114611da257600080fd5b50565b600081359050611db481611d8e565b92915050565b600060ff82169050919050565b611dd081611dba565b8114611ddb57600080fd5b50565b600081359050611ded81611dc7565b92915050565b6000806000806000806000806000806101008b8d031215611e1757611e16611ba8565b5b6000611e258d828e01611bc9565b9a50506020611e368d828e01611da5565b9950506040611e478d828e01611bc9565b9850506060611e588d828e01611dde565b97505060808b013567ffffffffffffffff811115611e7957611e78611bad565b5b611e858d828e01611c23565b965096505060a0611e988d828e01611bff565b94505060c08b013567ffffffffffffffff811115611eb957611eb8611bad565b5b611ec58d828e01611c23565b935093505060e0611ed88d828e01611da5565b9150509295989b9194979a5092959850565b611ef381611b6c565b82525050565b611f0281611ced565b82525050565b611f1181611bde565b82525050565b600081519050919050565b600082825260208201905092915050565b60005b83811015611f51578082015181840152602081019050611f36565b83811115611f60576000848401525b50505050565b6000601f19601f8301169050919050565b6000611f8282611f17565b611f8c8185611f22565b9350611f9c818560208601611f33565b611fa581611f66565b840191505092915050565b611fb981611dba565b82525050565b60008115159050919050565b611fd481611fbf565b82525050565b600061018083016000830151611ff36000860182611eea565b5060208301516120066020860182611eea565b5060408301516120196040860182611ef9565b50606083015161202c6060860182611eea565b50608083015161203f6080860182611f08565b5060a083015184820360a08601526120578282611f77565b91505060c083015161206c60c0860182611ef9565b5060e083015161207f60e0860182611ef9565b50610100830151612094610100860182611fb0565b506101208301516120a9610120860182611ef9565b506101408301518482036101408601526120c38282611f77565b9150506101608301516120da610160860182611fcb565b508091505092915050565b600060208201905081810360008301526120ff8184611fda565b905092915050565b600082825260208201905092915050565b7f4f6e6c7920737562736372697074696f6e20706172746965732063616e20636160008201527f6e63656c206120737562736372697074696f6e2e000000000000000000000000602082015250565b6000612174603483612107565b915061217f82612118565b604082019050919050565b600060208201905081810360008301526121a381612167565b9050919050565b7f537562736372697074696f6e20616c726561647920696e6163746976652e0000600082015250565b60006121e0601e83612107565b91506121eb826121aa565b602082019050919050565b6000602082019050818103600083015261220f816121d3565b9050919050565b60008160001c9050919050565b600073ffffffffffffffffffffffffffffffffffffffff82169050919050565b600061225661225183612216565b612223565b9050919050565b6000819050919050565b600061227a61227583612216565b61225d565b9050919050565b6000819050919050565b600061229e61229983612216565b612281565b9050919050565b7f4e487b7100000000000000000000000000000000000000000000000000000000600052602260045260246000fd5b600060028204905060018216806122ec57607f821691505b60208210811415612300576122ff6122a5565b5b50919050565b60008190508160005260206000209050919050565b60008154612328816122d4565b6123328186611f22565b9450600182166000811461234d576001811461235f57612392565b60ff1983168652602086019350612392565b61236885612306565b60005b8381101561238a5781548189015260018201915060208101905061236b565b808801955050505b50505092915050565b600060ff82169050919050565b60006123bb6123b683612216565b61239b565b9050919050565b600060ff82169050919050565b60006123e26123dd83612216565b6123c2565b9050919050565b60006101808301600080840154905061240181612243565b61240e6000870182611eea565b506001840154905061241f81612243565b61242c6020870182611eea565b506002840154905061243d81612267565b61244a6040870182611ef9565b506003840154905061245b81612243565b6124686060870182611eea565b50600484015490506124798161228b565b6124866080870182611f08565b506005840185830360a087015261249d838261231b565b925050600684015490506124b081612267565b6124bd60c0870182611ef9565b50600784015490506124ce81612267565b6124db60e0870182611ef9565b50600884015490506124ec816123a8565b6124fa610100870182611fb0565b506009840154905061250b81612267565b612519610120870182611ef9565b50600a8401858303610140870152612531838261231b565b925050600b8401549050612544816123cf565b612552610160870182611fcb565b50819250505092915050565b6000602082019050818103600083015261257881846123e9565b905092915050565b7f4e487b7100000000000000000000000000000000000000000000000000000000600052601160045260246000fd5b60006125ba82611ced565b91506125c583611ced565b9250827fffffffffffffffffffffffffffffffffffffffffffffffffffffffffffffffff038211156125fa576125f9612580565b5b828201905092915050565b600061261082611ced565b915061261b83611ced565b92508282101561262e5761262d612580565b5b828203905092915050565b7f4f6e6c7920737562736372697074696f6e20706179656573206d61792065786560008201527f63757465206120737562736372697074696f6e207061796d656e742e00000000602082015250565b6000612695603c83612107565b91506126a082612639565b604082019050919050565b600060208201905081810360008301526126c481612688565b9050919050565b7f537562736372697074696f6e20697320696e6163746976652e00000000000000600082015250565b6000612701601983612107565b915061270c826126cb565b602082019050919050565b60006020820190508181036000830152612730816126f4565b9050919050565b7f537562736372697074696f6e20616c7265616479207061696420666f7220746860008201527f697320706572696f642e00000000000000000000000000000000000000000000602082015250565b6000612793602a83612107565b915061279e82612737565b604082019050919050565b600060208201905081810360008301526127c281612786565b9050919050565b60006060820190506127de6000830186611b7e565b6127eb6020830185611b7e565b6127f86040830184611cf7565b949350505050565b61280981611fbf565b811461281457600080fd5b50565b60008151905061282681612800565b92915050565b60006020828403121561284257612841611ba8565b5b600061285084828501612817565b91505092915050565b7f537562736372697074696f6e207061796d656e74206661696c65642e00000000600082015250565b600061288f601c83612107565b915061289a82612859565b602082019050919050565b600060208201905081810360008301526128be81612882565b9050919050565b7f41637469766520737562736372697074696f6e20616c7265616479206578697360008201527f74732e0000000000000000000000000000000000000000000000000000000000602082015250565b6000612921602383612107565b915061292c826128c5565b604082019050919050565b6000602082019050818103600083015261295081612914565b9050919050565b60008151905061296681611d8e565b92915050565b60006020828403121561298257612981611ba8565b5b600061299084828501612957565b91505092915050565b7f496e73756666696369656e7420746f6b656e2062616c616e63652e0000000000600082015250565b60006129cf601b83612107565b91506129da82612999565b602082019050919050565b600060208201905081810360008301526129fe816129c2565b9050919050565b7f537562736372697074696f6e20706572696f64206d757374206265206772656160008201527f746572207468616e20302e000000000000000000000000000000000000000000602082015250565b6000612a61602b83612107565b9150612a6c82612a05565b604082019050919050565b60006020820190508181036000830152612a9081612a54565b9050919050565b6000612aa282611ced565b9150612aad83611ced565b9250817fffffffffffffffffffffffffffffffffffffffffffffffffffffffffffffffff0483118215151615612ae657612ae5612580565b5b828202905092915050565b6000604082019050612b066000830185611b7e565b612b136020830184611b7e565b9392505050565b7f416c6c6f77616e6365206f6620285f737562736372697074696f6e436f73742060008201527f2a2032292072657175697265642e000000000000000000000000000000000000602082015250565b6000612b76602e83612107565b9150612b8182612b1a565b604082019050919050565b60006020820190508181036000830152612ba581612b69565b9050919050565b7f496e697469616c20737562736372697074696f6e207061796d656e742066616960008201527f6c65642e00000000000000000000000000000000000000000000000000000000602082015250565b6000612c08602483612107565b9150612c1382612bac565b604082019050919050565b60006020820190508181036000830152612c3781612bfb565b9050919050565b7f496e697469616c697a61626c653a20636f6e747261637420697320616c72656160008201527f647920696e697469616c697a6564000000000000000000000000000000000000602082015250565b6000612c9a602e83612107565b9150612ca582612c3e565b604082019050919050565b60006020820190508181036000830152612cc981612c8d565b9050919050565b6000819050919050565b6000819050919050565b6000612cff612cfa612cf584612cd0565b612cda565b611dba565b9050919050565b612d0f81612ce4565b82525050565b6000602082019050612d2a6000830184612d06565b92915050565b7f4f776e61626c653a206e6577206f776e657220697320746865207a65726f206160008201527f6464726573730000000000000000000000000000000000000000000000000000602082015250565b6000612d8c602683612107565b9150612d9782612d30565b604082019050919050565b60006020820190508181036000830152612dbb81612d7f565b9050919050565b6000819050919050565b612ddd612dd882611bde565b612dc2565b82525050565b600081905092915050565b82818337600083830152505050565b6000612e098385612de3565b9350612e16838584612dee565b82840190509392505050565b6000612e2e8286612dcc565b602082019150612e3f828486612dfd565b9150819050949350505050565b7f4f776e61626c653a2063616c6c6572206973206e6f7420746865206f776e6572600082015250565b6000612e82602083612107565b9150612e8d82612e4c565b602082019050919050565b60006020820190508181036000830152612eb181612e75565b9050919050565b7f4e487b7100000000000000000000000000000000000000000000000000000000600052601260045260246000fd5b6000612ef282611ced565b9150612efd83611ced565b925082612f0d57612f0c612eb8565b5b828204905092915050565b7f496e697469616c697a61626c653a20636f6e7472616374206973206e6f74206960008201527f6e697469616c697a696e67000000000000000000000000000000000000000000602082015250565b6000612f74602b83612107565b9150612f7f82612f18565b604082019050919050565b60006020820190508181036000830152612fa381612f67565b905091905056fea264697066735822122080b5ad709c25030be0a2c9d747529c5449cfdf098447d52b3fae03eb5640877464736f6c63430008090033",
  "linkReferences": {},
  "deployedLinkReferences": {}
}