{
  "_format": "hh-sol-artifact-1",
  "contractName": "RecurringPayments",
  "sourceName": "contracts/RecurringPayments.sol",
  "abi": [
    {
      "inputs": [],
      "stateMutability": "nonpayable",
      "type": "constructor"
    },
    {
      "anonymous": false,
      "inputs": [
        {
          "indexed": false,
          "internalType": "string",
          "name": "",
          "type": "string"
        },
        {
          "indexed": false,
          "internalType": "bytes32",
          "name": "",
          "type": "bytes32"
        }
      ],
      "name": "NewSubscription",
      "type": "event"
    },
    {
      "anonymous": false,
      "inputs": [
        {
          "indexed": false,
          "internalType": "string",
          "name": "",
          "type": "string"
        }
      ],
      "name": "SubscriptionCancelled",
      "type": "event"
    },
    {
      "anonymous": false,
      "inputs": [],
      "name": "SubscriptionPaid",
      "type": "event"
    },
    {
      "inputs": [
        {
          "components": [
            {
              "internalType": "address",
              "name": "customer",
              "type": "address"
            },
            {
              "internalType": "address",
              "name": "token",
              "type": "address"
            },
            {
              "internalType": "address",
              "name": "payee",
              "type": "address"
            },
            {
              "internalType": "uint32",
              "name": "value",
              "type": "uint32"
            },
            {
              "internalType": "uint32",
              "name": "period",
              "type": "uint32"
            },
            {
              "internalType": "uint8",
              "name": "networkFee",
              "type": "uint8"
            },
            {
              "internalType": "string",
              "name": "ipfsHash",
              "type": "string"
            }
          ],
          "internalType": "struct RecurringPayments.PaymentData[]",
          "name": "payments",
          "type": "tuple[]"
        }
      ],
      "name": "batchExecutePayment",
      "outputs": [],
      "stateMutability": "nonpayable",
      "type": "function"
    },
    {
      "inputs": [
        {
          "internalType": "address",
          "name": "_token",
          "type": "address"
        },
        {
          "internalType": "address",
          "name": "_payee",
          "type": "address"
        },
        {
          "internalType": "uint32",
          "name": "_value",
          "type": "uint32"
        },
        {
          "internalType": "uint32",
          "name": "_period",
          "type": "uint32"
        },
        {
          "internalType": "string",
          "name": "_ipfsHash",
          "type": "string"
        }
      ],
      "name": "cancelSubscription",
      "outputs": [],
      "stateMutability": "nonpayable",
      "type": "function"
    },
    {
      "inputs": [
        {
          "internalType": "address",
          "name": "_payee",
          "type": "address"
        },
        {
          "internalType": "uint32",
          "name": "_value",
          "type": "uint32"
        },
        {
          "internalType": "address",
          "name": "_token",
          "type": "address"
        },
        {
          "internalType": "string",
          "name": "_ipfsHash",
          "type": "string"
        },
        {
          "internalType": "bytes32",
          "name": "_sid",
          "type": "bytes32"
        }
      ],
      "name": "createSubscription",
      "outputs": [],
      "stateMutability": "nonpayable",
      "type": "function"
    },
    {
      "inputs": [
        {
          "internalType": "address",
          "name": "_token",
          "type": "address"
        },
        {
          "internalType": "address",
          "name": "_payee",
          "type": "address"
        },
        {
          "internalType": "uint32",
          "name": "_value",
          "type": "uint32"
        },
        {
          "internalType": "uint32",
          "name": "_period",
          "type": "uint32"
        },
        {
          "internalType": "string",
          "name": "_ipfsHash",
          "type": "string"
        }
      ],
      "name": "encodeSubscriptionId",
      "outputs": [
        {
          "internalType": "bytes32",
          "name": "",
          "type": "bytes32"
        }
      ],
      "stateMutability": "pure",
      "type": "function"
    },
    {
      "inputs": [
        {
          "internalType": "address",
          "name": "_customer",
          "type": "address"
        },
        {
          "internalType": "address",
          "name": "_token",
          "type": "address"
        },
        {
          "internalType": "address",
          "name": "_payee",
          "type": "address"
        },
        {
          "internalType": "uint32",
          "name": "_value",
          "type": "uint32"
        },
        {
          "internalType": "uint32",
          "name": "_period",
          "type": "uint32"
        },
        {
          "internalType": "uint8",
          "name": "_payeeFee",
          "type": "uint8"
        },
        {
          "internalType": "string",
          "name": "_ipfsHash",
          "type": "string"
        }
      ],
      "name": "executePayment",
      "outputs": [],
      "stateMutability": "nonpayable",
      "type": "function"
    },
    {
      "inputs": [
        {
          "internalType": "address",
          "name": "_customer",
          "type": "address"
        },
        {
          "internalType": "bytes32",
          "name": "_sid",
          "type": "bytes32"
        }
      ],
      "name": "getSubscriptionTimestamp",
      "outputs": [
        {
          "internalType": "uint32",
          "name": "timestamp",
          "type": "uint32"
        }
      ],
      "stateMutability": "view",
      "type": "function"
    },
    {
      "inputs": [
        {
          "internalType": "address",
          "name": "_fee_proxy",
          "type": "address"
        }
      ],
      "name": "setFeeProxy",
      "outputs": [],
      "stateMutability": "nonpayable",
      "type": "function"
    }
  ],
  "bytecode": "0x608060405234801561001057600080fd5b50611d0e806100206000396000f3fe608060405234801561001057600080fd5b506004361061007d5760003560e01c8063971bc6fd1161005b578063971bc6fd146100d6578063ad08e66014610106578063ad4437f714610122578063b1d35d63146101525761007d565b80631af935b61461008257806325be0be11461009e5780637269fe25146100ba575b600080fd5b61009c60048036038101906100979190610ed7565b61016e565b005b6100b860048036038101906100b39190610eae565b610517565b005b6100d460048036038101906100cf91906110f1565b61055b565b005b6100f060048036038101906100eb9190610f91565b610811565b6040516100fd91906114dd565b60405180910390f35b610120600480360381019061011b919061105f565b610850565b005b61013c60048036038101906101379190611023565b610990565b6040516101499190611670565b60405180910390f35b61016c60048036038101906101679190610f91565b6109e5565b005b60008861017f898989898888610811565b604051602001610190929190611463565b604051602081830303815290604052805190602001209050600080600083815260200190815260200160002060009054906101000a900463ffffffff16905060008163ffffffff161415610219576040517f08c379a0000000000000000000000000000000000000000000000000000000008152600401610210906115b0565b60405180910390fd5b60008663ffffffff161415610263576040517f08c379a000000000000000000000000000000000000000000000000000000000815260040161025a90611570565b60405180910390fd5b600560ff168560ff16106102ac576040517f08c379a00000000000000000000000000000000000000000000000000000000081526004016102a3906115d0565b60405180910390fd5b600081426102ba9190611842565b905060006224ea008863ffffffff16106102e25762093a80886102dd9190611842565b6102fc565b60046003896102f19190611804565b6102fb91906117d3565b5b90508063ffffffff168263ffffffff161161034c576040517f08c379a000000000000000000000000000000000000000000000000000000000815260040161034390611650565b60405180910390fd5b60008760ff1660648b61035f91906117d3565b6103699190611804565b90508863ffffffff168363ffffffff16101561039057888461038b9190611799565b61039d565b884261039c9190611799565b5b93508863ffffffff168363ffffffff1611610406578860008087815260200190815260200160002060008282829054906101000a900463ffffffff166103e39190611799565b92506101000a81548163ffffffff021916908363ffffffff160217905550610449565b8863ffffffff16426104189190611743565b60008087815260200190815260200160002060006101000a81548163ffffffff021916908363ffffffff1602179055505b6104878d8c838d61045a9190611842565b63ffffffff168f73ffffffffffffffffffffffffffffffffffffffff16610a93909392919063ffffffff16565b6104dc8d600160009054906101000a900473ffffffffffffffffffffffffffffffffffffffff168363ffffffff168f73ffffffffffffffffffffffffffffffffffffffff16610a93909392919063ffffffff16565b7f9b9843d1c88dd34c5865e4019996d12602d1c5bb223af56fe763f98e41c7345360405160405180910390a150505050505050505050505050565b80600160006101000a81548173ffffffffffffffffffffffffffffffffffffffff021916908373ffffffffffffffffffffffffffffffffffffffff16021790555050565b60005b8282905081101561080c576107f98383838181106105a5577f4e487b7100000000000000000000000000000000000000000000000000000000600052603260045260246000fd5b90506020028101906105b791906116e2565b60000160208101906105c99190610eae565b848484818110610602577f4e487b7100000000000000000000000000000000000000000000000000000000600052603260045260246000fd5b905060200281019061061491906116e2565b60200160208101906106269190610eae565b85858581811061065f577f4e487b7100000000000000000000000000000000000000000000000000000000600052603260045260246000fd5b905060200281019061067191906116e2565b60400160208101906106839190610eae565b8686868181106106bc577f4e487b7100000000000000000000000000000000000000000000000000000000600052603260045260246000fd5b90506020028101906106ce91906116e2565b60600160208101906106e0919061115f565b878787818110610719577f4e487b7100000000000000000000000000000000000000000000000000000000600052603260045260246000fd5b905060200281019061072b91906116e2565b608001602081019061073d919061115f565b888888818110610776577f4e487b7100000000000000000000000000000000000000000000000000000000600052603260045260246000fd5b905060200281019061078891906116e2565b60a001602081019061079a9190611188565b8989898181106107d3577f4e487b7100000000000000000000000000000000000000000000000000000000600052603260045260246000fd5b90506020028101906107e591906116e2565b8060c001906107f4919061168b565b61016e565b808061080490611927565b91505061055e565b505050565b600086868686868660405160200161082e96959493929190611406565b6040516020818303038152906040528051906020012090509695505050505050565b60003382604051602001610865929190611463565b604051602081830303815290604052805190602001209050600080600083815260200190815260200160002060009054906101000a900463ffffffff1663ffffffff16146108e8576040517f08c379a00000000000000000000000000000000000000000000000000000000081526004016108df90611610565b60405180910390fd5b4260008083815260200190815260200160002060006101000a81548163ffffffff021916908363ffffffff16021790555061094c33888863ffffffff168873ffffffffffffffffffffffffffffffffffffffff16610a93909392919063ffffffff16565b7f6539a1de1ff6053d60fda25698f5a00750a07b8f1d424a6743a1fd4aacb4ab7e84848460405161097f9392919061151c565b60405180910390a150505050505050565b600080600084846040516020016109a8929190611463565b60405160208183030381529060405280519060200120815260200190815260200160002060009054906101000a900463ffffffff16905092915050565b6000336109f6888888888888610811565b604051602001610a07929190611463565b604051602081830303815290604052805190602001209050600080600083815260200190815260200160002060006101000a81548163ffffffff021916908363ffffffff1602179055507f1a3a4334b18384964040871162a86f32f60a8c9b1dfbe970851b40d3e05f15d18383604051610a829291906114f8565b60405180910390a150505050505050565b610b16846323b872dd60e01b858585604051602401610ab4939291906114a6565b604051602081830303815290604052907bffffffffffffffffffffffffffffffffffffffffffffffffffffffff19166020820180517bffffffffffffffffffffffffffffffffffffffffffffffffffffffff8381831617835250505050610b1c565b50505050565b6000610b7e826040518060400160405280602081526020017f5361666545524332303a206c6f772d6c6576656c2063616c6c206661696c65648152508573ffffffffffffffffffffffffffffffffffffffff16610be39092919063ffffffff16565b9050600081511115610bde5780806020019051810190610b9e9190611136565b610bdd576040517f08c379a0000000000000000000000000000000000000000000000000000000008152600401610bd490611630565b60405180910390fd5b5b505050565b6060610bf28484600085610bfb565b90509392505050565b606082471015610c40576040517f08c379a0000000000000000000000000000000000000000000000000000000008152600401610c3790611590565b60405180910390fd5b6000808673ffffffffffffffffffffffffffffffffffffffff168587604051610c69919061148f565b60006040518083038185875af1925050503d8060008114610ca6576040519150601f19603f3d011682016040523d82523d6000602084013e610cab565b606091505b5091509150610cbc87838387610cc8565b92505050949350505050565b60608315610d2b57600083511415610d2357610ce385610d3e565b610d22576040517f08c379a0000000000000000000000000000000000000000000000000000000008152600401610d19906115f0565b60405180910390fd5b5b829050610d36565b610d358383610d61565b5b949350505050565b6000808273ffffffffffffffffffffffffffffffffffffffff163b119050919050565b600082511115610d745781518083602001fd5b806040517f08c379a0000000000000000000000000000000000000000000000000000000008152600401610da8919061154e565b60405180910390fd5b600081359050610dc081611c65565b92915050565b60008083601f840112610dd857600080fd5b8235905067ffffffffffffffff811115610df157600080fd5b602083019150836020820283011115610e0957600080fd5b9250929050565b600081519050610e1f81611c7c565b92915050565b600081359050610e3481611c93565b92915050565b60008083601f840112610e4c57600080fd5b8235905067ffffffffffffffff811115610e6557600080fd5b602083019150836001820283011115610e7d57600080fd5b9250929050565b600081359050610e9381611caa565b92915050565b600081359050610ea881611cc1565b92915050565b600060208284031215610ec057600080fd5b6000610ece84828501610db1565b91505092915050565b60008060008060008060008060e0898b031215610ef357600080fd5b6000610f018b828c01610db1565b9850506020610f128b828c01610db1565b9750506040610f238b828c01610db1565b9650506060610f348b828c01610e84565b9550506080610f458b828c01610e84565b94505060a0610f568b828c01610e99565b93505060c089013567ffffffffffffffff811115610f7357600080fd5b610f7f8b828c01610e3a565b92509250509295985092959890939650565b60008060008060008060a08789031215610faa57600080fd5b6000610fb889828a01610db1565b9650506020610fc989828a01610db1565b9550506040610fda89828a01610e84565b9450506060610feb89828a01610e84565b935050608087013567ffffffffffffffff81111561100857600080fd5b61101489828a01610e3a565b92509250509295509295509295565b6000806040838503121561103657600080fd5b600061104485828601610db1565b925050602061105585828601610e25565b9150509250929050565b60008060008060008060a0878903121561107857600080fd5b600061108689828a01610db1565b965050602061109789828a01610e84565b95505060406110a889828a01610db1565b945050606087013567ffffffffffffffff8111156110c557600080fd5b6110d189828a01610e3a565b935093505060806110e489828a01610e25565b9150509295509295509295565b6000806020838503121561110457600080fd5b600083013567ffffffffffffffff81111561111e57600080fd5b61112a85828601610dc6565b92509250509250929050565b60006020828403121561114857600080fd5b600061115684828501610e10565b91505092915050565b60006020828403121561117157600080fd5b600061117f84828501610e84565b91505092915050565b60006020828403121561119a57600080fd5b60006111a884828501610e99565b91505092915050565b6111ba81611876565b82525050565b6111d16111cc82611876565b611970565b82525050565b6111e081611894565b82525050565b6111f76111f282611894565b611982565b82525050565b600061120882611706565b611212818561171c565b93506112228185602086016118f4565b80840191505092915050565b600061123a8385611727565b93506112478385846118e5565b61125083611a0e565b840190509392505050565b60006112678385611738565b93506112748385846118e5565b82840190509392505050565b600061128b82611711565b6112958185611727565b93506112a58185602086016118f4565b6112ae81611a0e565b840191505092915050565b60006112c6601b83611727565b91506112d182611a39565b602082019050919050565b60006112e9602683611727565b91506112f482611a62565b604082019050919050565b600061130c603283611727565b915061131782611ab1565b604082019050919050565b600061132f603183611727565b915061133a82611b00565b604082019050919050565b6000611352601d83611727565b915061135d82611b4f565b602082019050919050565b6000611375602383611727565b915061138082611b78565b604082019050919050565b6000611398602a83611727565b91506113a382611bc7565b604082019050919050565b60006113bb603383611727565b91506113c682611c16565b604082019050919050565b6113da816118be565b82525050565b6113e9816118c8565b82525050565b6114006113fb826118c8565b61199e565b82525050565b600061141282896111c0565b60148201915061142282886111c0565b60148201915061143282876113ef565b60048201915061144282866113ef565b60048201915061145382848661125b565b9150819050979650505050505050565b600061146f82856111c0565b60148201915061147f82846111e6565b6020820191508190509392505050565b600061149b82846111fd565b915081905092915050565b60006060820190506114bb60008301866111b1565b6114c860208301856111b1565b6114d560408301846113d1565b949350505050565b60006020820190506114f260008301846111d7565b92915050565b6000602082019050818103600083015261151381848661122e565b90509392505050565b6000604082019050818103600083015261153781858761122e565b905061154660208301846111d7565b949350505050565b600060208201905081810360008301526115688184611280565b905092915050565b60006020820190508181036000830152611589816112b9565b9050919050565b600060208201905081810360008301526115a9816112dc565b9050919050565b600060208201905081810360008301526115c9816112ff565b9050919050565b600060208201905081810360008301526115e981611322565b9050919050565b6000602082019050818103600083015261160981611345565b9050919050565b6000602082019050818103600083015261162981611368565b9050919050565b600060208201905081810360008301526116498161138b565b9050919050565b60006020820190508181036000830152611669816113ae565b9050919050565b600060208201905061168560008301846113e0565b92915050565b600080833560016020038436030381126116a457600080fd5b80840192508235915067ffffffffffffffff8211156116c257600080fd5b6020830192506001820236038313156116da57600080fd5b509250929050565b60008235600160e0038336030381126116fa57600080fd5b80830191505092915050565b600081519050919050565b600081519050919050565b600081905092915050565b600082825260208201905092915050565b600081905092915050565b600061174e826118be565b9150611759836118be565b9250827fffffffffffffffffffffffffffffffffffffffffffffffffffffffffffffffff0382111561178e5761178d6119b0565b5b828201905092915050565b60006117a4826118c8565b91506117af836118c8565b92508263ffffffff038211156117c8576117c76119b0565b5b828201905092915050565b60006117de826118c8565b91506117e9836118c8565b9250826117f9576117f86119df565b5b828204905092915050565b600061180f826118c8565b915061181a836118c8565b92508163ffffffff0483118215151615611837576118366119b0565b5b828202905092915050565b600061184d826118c8565b9150611858836118c8565b92508282101561186b5761186a6119b0565b5b828203905092915050565b60006118818261189e565b9050919050565b60008115159050919050565b6000819050919050565b600073ffffffffffffffffffffffffffffffffffffffff82169050919050565b6000819050919050565b600063ffffffff82169050919050565b600060ff82169050919050565b82818337600083830152505050565b60005b838110156119125780820151818401526020810190506118f7565b83811115611921576000848401525b50505050565b6000611932826118be565b91507fffffffffffffffffffffffffffffffffffffffffffffffffffffffffffffffff821415611965576119646119b0565b5b600182019050919050565b600061197b8261198c565b9050919050565b6000819050919050565b600061199782611a2c565b9050919050565b60006119a982611a1f565b9050919050565b7f4e487b7100000000000000000000000000000000000000000000000000000000600052601160045260246000fd5b7f4e487b7100000000000000000000000000000000000000000000000000000000600052601260045260246000fd5b6000601f19601f8301169050919050565b60008160e01b9050919050565b60008160601b9050919050565b7f49742773206c69666574696d6520737562736372697074696f6e2e0000000000600082015250565b7f416464726573733a20696e73756666696369656e742062616c616e636520666f60008201527f722063616c6c0000000000000000000000000000000000000000000000000000602082015250565b7f537562736372697074696f6e20646f6573206e6f74206578697374206f72206860008201527f6173206265656e2063616e63656c6c65642e0000000000000000000000000000602082015250565b7f6e6574776f726b206665652063616e6e6f74206265206d6f7265207468656e2060008201527f4d41585f4e4554574f524b5f464545252e000000000000000000000000000000602082015250565b7f416464726573733a2063616c6c20746f206e6f6e2d636f6e7472616374000000600082015250565b7f41637469766520737562736372697074696f6e20616c7265616479206578697360008201527f74732e0000000000000000000000000000000000000000000000000000000000602082015250565b7f5361666545524332303a204552433230206f7065726174696f6e20646964206e60008201527f6f74207375636365656400000000000000000000000000000000000000000000602082015250565b7f537562736372697074696f6e2068617320616c7265616479206265656e20706160008201527f696420666f72207468697320706572696f642e00000000000000000000000000602082015250565b611c6e81611876565b8114611c7957600080fd5b50565b611c8581611888565b8114611c9057600080fd5b50565b611c9c81611894565b8114611ca757600080fd5b50565b611cb3816118c8565b8114611cbe57600080fd5b50565b611cca816118d8565b8114611cd557600080fd5b5056fea26469706673582212206a24fc7fcaefe90220843db77c175f151d659606564cbece7a025006a06908c464736f6c63430008040033",
  "linkReferences": {},
  "deployedLinkReferences": {}
}